:020000040800F2
:10000000B8060020750C0008D9010008DB010008C3
:10001000DF010008E3010008E7010008000000001C
:10002000000000000000000000000000EB010008DC
:10003000ED01000800000000EF010008F1010008D8
:100040008F0C00088F0C00088F0C00088F0C000824
:100050008F0C00088F0C00088F0C00088F0C000814
:100060008F0C00088F0C00088F0C00088F0C000804
:100070008F0C00088F0C00088F0C00088F0C0008F4
:100080008F0C00088F0C00088F0C00088F0C0008E4
:100090008F0C00088F0C00088F0C00088F0C0008D4
:1000A0008F0C00088F0C00088F0C00088F0C0008C4
:1000B0008F0C00088F0C00088F0C00088F0C0008B4
:1000C0008F0C00088F0C00088F0C00088F0C0008A4
:1000D0008F0C00088F0C00088F0C00088F0C000894
:1000E0008F0C00088F0C00088F0C00088F0C000884
:1000F0008F0C00088F0C00088F0C00088F0C000874
:100100008F0C00088F0C00088F0C00088F0C000863
:100110008F0C00088F0C00088F0C00088F0C000853
:100120008F0C00088F0C00088F0C00088F0C000843
:1001300000F002F800F041F80AA090E8000C8244B8
:100140008344AAF10107DA4501D100F036F8AFF295
:10015000090EBAE80F0013F0010F18BFFB1A43F0A5
:1001600001031847C0210000E0210000103A24BF1D
:1001700078C878C1FAD8520724BF30C830C144BF0C
:1001800004680C607047000000230024002500264E
:10019000103A28BF78C1FBD8520728BF30C148BFEA
:1001A0000B607047642901F0B987002070471FB5C4
:1001B00002F0B0F81FBD10B510BD02F077F811467F
:1001C000FFF7F5FF00F018F802F095F803B4FFF719
:1001D000F2FF03BC00F0AEF9704700BFFEE700BFBE
:1001E000FEE700BFFEE700BFFEE7704770477047BD
:1001F00010B500F0B4F910BD01F0CCFE4A49096811
:100200004FF47A72B1FBF2F0B0F1807F01D301219B
:100210001CE020F07F41491E4FF0E022516100BFF9
:100220005117002905DA0F210901404A0B23D15447
:1002300004E00F2109013E4A5317D15400BF0021A9
:100240004FF0E022916107211161002109B100BF47
:10025000FEE700F089F8102136A001F01DFF00F044
:1002600099FB0DE03748017837A001F015FF4FF4F6
:100270007A7000F081F933480078401C31490870E9
:10028000F0E708B501214FF4FA7000F07AFE4FF460
:100290008071324801F067F84FF48070ADF80000CB
:1002A00010208DF8030003208DF8020069462B48CA
:1002B00000F0AEFF04212A4801F055F80420ADF803
:1002C000000010208DF8030003208DF8020069461D
:1002D000234800F09DFF8021224801F044F880204F
:1002E000ADF8000010208DF8030003208DF8020007
:1002F00069461C4800F08CFF08BD06E0102101E0B3
:100300004A1ED1B20029FBD1401E0028F6D1704709
:1003100007E042F2F03101E04A1E91B20029FBD120
:10032000401E0028F5D170472000002018ED00E0A5
:1003300000E400E04750532054657374202C25647A
:100340000D0A0000000000204350552052756E2019
:1003500054696D65733A2025640D0A000008014058
:10036000001801400010014000B585B001210520B2
:1003700000F007FE0121880300F003FE4FF4007037
:10038000ADF8100018208DF8130003208DF812002E
:1003900004A96A4800F03CFF4FF48060ADF81000FB
:1003A00004208DF8130004A9644800F031FF04A96B
:1003B000624800F02DFF4FF4E13000900020ADF8CE
:1003C0000400ADF80600ADF80800ADF80C000C20F4
:1003D000ADF80A0069465A4801F0A9F801215848C9
:1003E00001F031F94021564801F018FA05B000BD7E
:1003F00008B54FF4E06000F02FFE26208DF80000D5
:1004000005208DF8020001208DF80300684600F0F9
:1004100028FE08BD00B585B00121052000F0B1FD22
:100420000121480400F0BAFD0420ADF810001820A6
:100430008DF8130003208DF8120004A93F4800F046
:10044000E7FE0820ADF8100004208DF8130004A981
:100450003A4800F0DDFE04A9384800F0D9FE4FF418
:10046000165000900020ADF80400ADF80600ADF87D
:100470000800ADF80C000C20ADF80A0069463148C0
:1004800001F055F8012240F225512E4801F0E7F81D
:1004900001212C4801F0D7F840212A4801F0BEF98B
:1004A000FFF7A6FF05B000BD70B504460D46E1B2EA
:1004B000234801F038F900BF4021214801F0A1F99B
:1004C0000028F9D0204670BD10B5044600BF202199
:1004D0001B4801F096F90028F9D0194801F027F9D6
:1004E00010BD70B504460D4600BF8021204601F0C6
:1004F00088F90028F9D02946204601F014F970BD8A
:1005000070B505460C4600BF8021284601F079F9F8
:100510000028F9D0210A284601F005F900BF802102
:10052000284601F06EF90028F9D0E1B2284601F022
:10053000FAF870BD014600BF704700000008014096
:100540000038014000440040017939B9016829B1FF
:100550000168491E016001D101210171704710B588
:10056000002406E0184901EBC400FFF7EDFF601C12
:10057000C4B2042CF6DB10BD012800D102201249C0
:1005800008600021104A117104E00F49097901291E
:1005900000D100E0F9E700BF7047042800DB704796
:1005A000094A42F830100022074B03EBC0031A71CE
:1005B00000BFF4E70146042901DB00207047024830
:1005C00000EBC1000079F9E73400002008B50121F3
:1005D000080200F0C9FC012140F2E91000F0D1FC52
:1005E00010208DF8030003208DF802004FF4004026
:1005F000ADF800006946FF4800F00AFE4FF4804065
:10060000ADF800006946FB4800F002FE03208DF8BB
:10061000020018208DF803004CF20370ADF80000C2
:100620006946F54800F0F4FD4FF68070ADF8000023
:100630006946F24800F0ECFD1020ADF80000694674
:10064000ED4800F0E5FD2020ADF800006946EA48DD
:1006500000F0DEFD8020ADF800006946E64800F0BD
:10066000D7FD0220ADF800006946E54800F0D0FD56
:100670004FF40041DF4800F076FE4FF48041DD4842
:1006800000F073FE1021DC4800F06DFE2021DA48F6
:1006900000F069FE8021D84800F065FE08BD00B575
:1006A00097B00220019000200290052003900020C6
:1006B0000490059006904FF080500790002008901D
:1006C000099008200A9010200B9000200C900E90AA
:1006D0000F9010904FF480501190002012901390C2
:1006E000149001A81590169008A801F032F9012184
:1006F000002001F08FFA17B000BD00E0401E002876
:10070000FCD1704710B54FF48041BA4800F02DFE7F
:100710001420FFF7FDFD4FF48041B64800F023FEA2
:100720006420FFF7F5FD10BD10B503464FF4FC60E3
:1007300000EA411040EAC32002F01F04204380B2C7
:1007400010BD10B5044614B1012C0CD105E041F2E6
:100750003801032000F07CFA0BE041F23001032065
:1007600000F076FA05E041F21801032000F070FA7B
:1007700000BF00BF10BD2DE9F04104460D461646EE
:100780001F462146502000F063FAA019401E81B296
:10079000512000F05DFA2946522000F059FAE8197C
:1007A000401E81B2532000F053FA2146202000F071
:1007B0004FFA2946212000F04BFA222000F044FA9B
:1007C000BDE8F0812DE9F04704460F4615461E4668
:1007D000DDF820902146502000F03AFA6019401EC2
:1007E00081B2512000F034FA3946522000F030FA3C
:1007F000B819401E81B2532000F02AFA222000F0DE
:1008000023FA05FB06FA4FF0000804E0484600F022
:1008100025FA08F10108D045F8D3BDE8F0872DE9A5
:10082000F04704460F4615461E462146502000F06C
:100830000FFA6019401E81B2512000F009FA3946C2
:10084000522000F005FAB819401E81B2532000F082
:10085000FFF9222000F0F8F905FB06F94FF0000837
:1008600009E0002211461F20FFF75EFF824600F0DC
:10087000F5F908F10108C845F3D3BDE8F08710B5D4
:100880000021502000F0E4F9EF21512000F0E0F9C0
:100890000021522000F0DCF940F23F11532000F01B
:1008A000D7F9222000F0D0F910BD10B5044620463B
:1008B00000F0D4F910BD70B504460D462146502015
:1008C00000F0C6F9EF21512000F0C2F9294652206C
:1008D00000F0BEF940F23F11532000F0B9F9214673
:1008E000202000F0B5F92946212000F0B1F922209E
:1008F00000F0AAF94348008800F0B0F970BD70B567
:1009000004460E4615462146502000F0A1F9EF217D
:10091000512000F09DF93146522000F099F940F243
:100920003F11532000F094F92146202000F090F967
:100930003146212000F08CF9222000F085F928466C
:1009400000F08CF970BD70B5002400250CE0002685
:1009500003E0284600F082F9761CB6F5965FF8D3DE
:1009600041F211100544641C102CF0D370BD70B519
:1009700004460D4621464E2000F06AF929464F20D4
:1009800000F066F970BD0146002901DA484270475F
:100990000846FCE710B50024FFF718FEFFF77FFEBE
:1009A000FFF7B0FE002000F04FF900F05AF90446BE
:1009B000E1B21548FFF7A4FD43F20801E32000F07F
:1009C00047F91221E72000F043F941F23121EF20ED
:1009D00000F03EF90121002000F03AF94FF4807157
:1009E000012000F035F94FF42741602000F030F984
:1009F0000CE00000000C0140001401400018014010
:100A00000020014008000020003801404FF4E06160
:100A1000022000F01DF941F23001032000F018F926
:100A20000021042000F014F940F20221082000F017
:100A30000FF90021092000F00BF900210A2000F035
:100A400007F900210C2000F003F900210D2000F02F
:100A5000FFF800210F2000F0FBF80021102000F02B
:100A6000F7F80721112000F0F3F80021122000F020
:100A7000EFF80021132000F0EBF8C820FFF73DFE4F
:100A800041F29061102000F0E3F840F2272111209C
:100A900000F0DEF83220FFF730FE1C21122000F0BB
:100AA000D7F83220FFF729FE4FF4C051132000F091
:100AB000CFF81C21292000F0CBF80D212B2000F0CD
:100AC000C7F83220FFF719FE0021202000F0C0F8FF
:100AD0000021212000F0BCF80721302000F0B8F8F8
:100AE00040F20231312000F0B3F840F2051132201B
:100AF00000F0AEF840F20621352000F0A9F840F6EB
:100B00000801362000F0A4F840F20621372000F05A
:100B10009FF840F20451382000F09AF8072139205C
:100B200000F096F840F205113C2000F091F840F6F4
:100B300008013D2000F08CF80021502000F088F8DA
:100B4000EF21512000F084F80021522000F080F8BD
:100B500040F23F11532000F07BF84FF42741602012
:100B600000F076F80121612000F072F800216A207F
:100B700000F06EF80021802000F06AF8002181204A
:100B800000F066F80021822000F062F80021832046
:100B900000F05EF80021842000F05AF80021852042
:100BA00000F056F81021902000F052F80021922019
:100BB00000F04EF80321932000F04AF84FF48871BA
:100BC000952000F045F80021972000F041F8002121
:100BD000982000F03DF840F23311072000F038F87B
:100BE000002000F031F800F03CF80446E1B21F4864
:100BF000FFF786FC0120FFF7A4FD0021502000F044
:100C000027F8EF21512000F023F80021522000F0B6
:100C10001FF840F23F11532000F01AF80021202065
:100C200000F016F80021212000F012F8222000F038
:100C30000BF8002404E04FF4784000F00FF8641C37
:100C4000B4F5963FF7D310BD4FF0C0410880704710
:100C50004FF0C0421080064A11807047044A10804D
:100C60007047002002490888088870470038014012
:100C7000001000600948804709480047FEE7FEE78A
:100C8000FEE7FEE7FEE7FEE7FEE7FEE7FEE7FEE73C
:100C900004480549054A064B70470000951F0008A7
:100CA00031010008B8000020B8060020B80200207A
:100CB000B8020020DB48006840F00100D949086014
:100CC00008464068D8490840D64948600846006848
:100CD000D6490840D34908600846006820F48020BF
:100CE00008600846406820F4FE0048604FF41F008A
:100CF00088607047CB49096821F48031C94A116086
:100D00001146096821F480211160B0F5803F03D0BD
:100D1000B0F5802F0ED106E0C249096841F4803158
:100D2000C04A116007E0BF49096841F4A021BD4AEB
:100D3000116000E000BF00BF704710B501460022FF
:100D4000002300204A11012A02D1B64C236806E094
:100D5000022A02D1B34C236A01E0B24C636A01F06B
:100D60001F02012494401C4201D0012000E0002019
:100D700010BD70B500240025002600BF3120FFF70C
:100D8000DCFF0646641CB4F5A06F01D0002EF5D040
:100D90003120FFF7D2FF08B1012500E000252846E9
:100DA00070BD014600209F4A106820F0F80040EA1C
:100DB000C100106070479E490860704702460020DD
:100DC000984B586820F47C1042EA01031843954B75
:100DD0005860704796490866704701460020914A5E
:100DE000506820F003000843506070478D48406809
:100DF00000F00C007047014600208A4A506820F03D
:100E0000F00008435060704701460020854A506852
:100E100020F4E06008435060704701460020814A9A
:100E2000506820F4605040EAC1005060704729B11A
:100E30007C4A527A02437B4B5A7206E0794A527AD4
:100E4000C343DBB21A40774B5A7270477949086046
:100E5000704701460020734A506820F44040084320
:100E6000506070470021744A11706E4A82F8201059
:100E7000012802D0042808D103E001216E4A117034
:100E800004E005216C4A117000E000BF00BF70470C
:100E90006A49086070476349096A0143614A1162FF
:100EA000704767490860704730B500210022002470
:100EB00000235C4D6D6805F00C0121B1042905D0BB
:100EC000082923D105E05F4D056022E05D4D0560F6
:100ED0001FE0544D6D6805F47012524D6D6805F4B5
:100EE0008034022505EB92421CB9574D55430560ED
:100EF0000BE04C4D6D6815F4003F03D0524D554347
:100F0000056002E04F4D5543056002E04D4D056020
:100F100000BF00BF434D6D6805F0F00109094B4D5E
:100F20006B5C0568DD4045603E4D6D6805F4E06131
:100F3000090A464D6B5C4568DD408560394D6D683A
:100F400005F46051C90A414D6B5C4568DD40C560E0
:100F5000344D6D6805F44041890B3D4D6B5CC568AF
:100F6000B5FBF3F5056130BD29B12E4A5269024344
:100F70002C4B5A6104E02B4A52698243294B5A6137
:100F8000704729B1274A92690243264B9A6104E0CF
:100F9000244A92698243234B9A61704729B1214ABE
:100FA000D26902431F4BDA6104E01E4AD2698243D0
:100FB0001C4BDA61704729B11A4AD2680243194BB7
:100FC000DA6004E0174AD2688243164BDA60704751
:100FD00029B1144A12690243124B1A6104E0114A02
:100FE000126982430F4B1A6170471A4908607047B3
:100FF0000F49C86470470B49C87170470948406A77
:1010000040F0807007494862704701460020054A59
:1010100092680A4201D0012000E000207047014997
:1010200088727047001002400000FFF8FFFFF6FED4
:1010300000004242D8004242201002408004424256
:101040003C04424200127A0000093D000A000020E0
:101050001A0000204004424236490143364A1160DA
:10106000704770B5002100230F22C4784CB3324C76
:10107000246804F4E064C4F5E0644FEA1421C1F18B
:10108000040322FA01F2447804FA03F1847804EAB2
:10109000020444EA01014FEA0111284C0678A155E7
:1010A000047804F01F054FF0010404FA05F40578F4
:1010B0004FEA65154FF0E02606EB8505C5F80041BF
:1010C00009E0047804F01F050124AC401C4D0678AB
:1010D000761145F8264070BD1A4A0A4002431A4B61
:1010E0001A60704741B1194A126842EA00024FF093
:1010F000E023C3F8102D07E0144A126822EA000228
:101100004FF0E023C3F8102D7047042808D14FF0AA
:10111000E021096941F004014FF0E022116107E08C
:101120004FF0E021096921F004014FF0E022116144
:10113000704700000000FA050CED00E000E400E05C
:1011400080E100E080FFFF1F08ED00E010ED00E00F
:1011500010B50446CA48844208D101210420FFF793
:101160002AFF00210420FFF726FF46E0C5488442FD
:1011700008D101210820FFF71EFF00210820FFF7FA
:101180001AFF3AE0C048844208D101211020FFF73D
:1011900012FF00211020FFF70EFF2EE0BB48844213
:1011A00008D101212020FFF706FF00212020FFF7B2
:1011B00002FF22E0B648844208D101214020FFF717
:1011C000FAFE00214020FFF7F6FE16E0B148844207
:1011D00008D101218020FFF7EEFE00218020FFF7DB
:1011E000EAFE0AE0AC48844207D101218015FFF7EE
:1011F000E2FE0021A015FFF7DEFE10BD10B50121B3
:101200000846FFF7D8FE00210120FFF7D4FE10BDED
:101210002DE9F0410246002500260020002300248D
:10122000002791F803C00CF00F0591F803C01CF0E3
:10123000100F03D091F802C04CEA0505B1F800C0C8
:101240001CF0FF0F31D0146800202BE04FF0010C90
:101250000CFA00F3B1F800C00CEA03069E4220D15C
:1012600083004FF00F0C0CFA03F7BC4305FA03FCA4
:101270004CEA040491F803C0BCF1280F06D14FF0EA
:10128000010C0CFA00FCC2F814C00AE091F803C08B
:10129000BCF1480F05D14FF0010C0CFA00FCC2F86C
:1012A00010C0401C0828D1D31460B1F800C0BCF1B4
:1012B000FF0F34DD546800202EE000F1080C4FF0E1
:1012C000010808FA0CF3B1F800C00CEA03069E42CC
:1012D00021D183004FF00F0C0CFA03F7BC4305FA41
:1012E00003FC4CEA040491F803C0BCF1280F05D1BB
:1012F00000F1080C08FA0CF8C2F8148091F803C049
:10130000BCF1480F07D100F1080C4FF0010808FAB2
:101310000CF8C2F81080401C0828CED35460BDE8F9
:10132000F0814FF6FF710180022181700421C170AC
:1013300070470246002093680B4201D0012000E074
:10134000002070470146886880B27047024600203E
:10135000D3680B4201D0012000E000207047014615
:10136000C86880B2704701617047416170470AB137
:10137000016100E041617047C16070474FF4803205
:101380000A43826181618261826982697047024693
:101390000020424B18684FF68073184040EA021054
:1013A00008433E4B186070473D49C8617047F0B52F
:1013B0000A46002300240021002500F00046B6F173
:1013C000004F02D1354EF16901E0344E7168C0F32F
:1013D000034583B200F44016B6F5401F08D121F052
:1013E00070612E4E766826F070662C4F7E6012E09B
:1013F00000F48016B6F5801F06D1032606FA05F420
:10140000A14341F0706106E0460D360103FA06F68D
:10141000B14341F0706122B1460D360103FA06F680
:10142000314300F00046B6F1004F02D11B4EF1618E
:1014300001E01A4E7160F0BD30B500228B071C0F21
:101440000F2303FA04F2154B08338C1053F82430A1
:101450009343124C08348D1044F8253023468C10E9
:1014600053F824308C07240F00FA04F423430B4C68
:1014700008348D1044F8253030BD0A4908607047A3
:1014800000080140000C0140001001400014014020
:1014900000180140001C01400020014000000140F4
:1014A00000002042DC00204210B50446FC48844283
:1014B00009D101218803FFF77EFD00214FF4804010
:1014C000FFF779FD32E0F748844209D10121480451
:1014D000FFF77EFD00214FF40030FFF779FD25E096
:1014E000F148844209D101218804FFF771FD0021F0
:1014F0004FF48020FFF76CFD18E0EC48844209D1DE
:101500000121C804FFF764FD00214FF40020FFF71C
:101510005FFD0BE0E648844208D101210805FFF792
:1015200057FD00214FF48010FFF752FD10BD2DE94B
:10153000F04786B005460E460024A24600BFA146ED
:101540000027B08900B100BF2F462C8A4CF6FF70EF
:101550000440F08804432C82AC894EF6F31004401A
:10156000B08831890843718908430443AC81AC8A4F
:101570004FF6FF400440B0890443AC8201A8FFF756
:1015800093FCC748874202D1DDF810A001E0DDF8E6
:101590000CA0A88910F4004F08D00AEBCA0000EB99
:1015A0000A1031684900B0FBF1F807E00AEBCA0005
:1015B00000EB0A1031688900B0FBF1F86420B8FB39
:1015C000F0F004012009642101FB1089A88910F4BE
:1015D000004F08D0322000EBC900B0FBF1F000F062
:1015E0000700044308E0322000EB09106421B0FB3F
:1015F000F1F000F00F0004432C8106B0BDE8F08745
:101600004FF41651016000218180C18001810C21BD
:10161000418100218181704710B502460020108A67
:101620004FF2FF0318400B884C8823438C882343D8
:10163000CC8823431843108210BD002101804180D3
:101640008180C180704721B1828942F40052828139
:1016500004E082894DF6FF731A4082817047F0B52D
:1016600003460024002600250020A1F510676A3FEC
:1016700000D100BF1846C1F3421401F01F06012734
:1016800007FA06F5012C01D10C3004E0022C01D13F
:10169000103000E014301AB107682F43076002E0F1
:1016A0000768AF430760F0BD10B51AB1838A0B43DA
:1016B000838204E0838ACC43A4B22340838210BD9A
:1016C000028A4FF6F0731A400282028A0A430282AB
:1016D000704782894FF2FF731A40828182890A43E0
:1016E0008281704721B1828942F00202828104E046
:1016F00082894FF6FD731A4082817047028A4FF645
:10170000DF731A400282028A0A430282704721B1C3
:10171000028A42F48042028204E0028A4BF6FF739E
:101720001A4002827047C1F3080282807047014666
:101730008888C0F308007047818941F001018181E8
:101740007047028BD2B20283028B42EA01220283EB
:101750007047028B02F47F420283028B0A430283AA
:10176000704721B1828A42F02002828204E0828A9C
:101770004FF6DF731A408282704721B1828A42F0AD
:101780001002828204E0828A4FF6EF731A4082824E
:10179000704721B1828A42F00802828204E0828A84
:1017A0004FF6F7731A408282704721B1828942F462
:1017B0000042828103E08289C2F30E028281704777
:1017C00021B1828A42F40062828204E0828A4FF26E
:1017D000FF731A4082827047828A4FF6FB731A4069
:1017E0008282828A0A438282704721B1828A42F0D1
:1017F0000202828204E0828A4FF6FD731A408282DE
:10180000704702460020B1F5007F00D100BF138869
:101810000B4201D0012000E00020704701F400726B
:10182000B2F5007F00D100BFCA430280704770B597
:1018300002460024002300250020A1F510666A3E20
:1018400000D100BFC1F3421501F01F03012606FAC3
:1018500003F3012D02D19689334006E0022D02D117
:10186000168A334001E0968A33400C12012606FAAC
:1018700004F41688344013B10CB1012000E00020BC
:1018800070BD10B500220023A1F510646A3C00D1A0
:1018900000BF0A1201249440A3B2DC43048010BDAF
:1018A000003801400044004000480040004C004027
:1018B0000050004030B943F2DB014FF0204242F8C3
:1018C000201005E043F2D2014FF0204242F82010F0
:1018D0006FF07042411C4FF0204343F82120114625
:1018E0001A4602EB8002C2F80411704710280AD190
:1018F00018214FF020421166402151664FF0FC3113
:101900009166D16610E01821F84A11604FF040014D
:101910004FF02042C2F884104FF0FC31F44A1160BD
:101920004FF02042C2F88C1070471820F14908602F
:101930004FF000004FF02041C1F8A4004FF0FC3000
:10194000ED49086001F10401086001F1040108603B
:101950007047D0E901121143C26811430269114373
:101960004269114382691143C2691143026A1143FA
:10197000426A1143826A1143C26A1143026B1143E6
:101980004FF02043026843F822108168082908D1EB
:101990001A46016852F8211041F04001026843F8EC
:1019A0002210416B0968426B526841EA0211426B96
:1019B000926841EA0221426BD26841EA0241426BDD
:1019C000126941EA0251426B526941EA0261426B7B
:1019D000926911430268521C4FF0204343F82210D1
:1019E000C16AB1F5804F1AD1816B0968826B526868
:1019F00041EA0211826B926841EA0221826B12690C
:101A000041EA0251826B526941EA0261826B92693A
:101A10001143026803EB8202C2F8041108E06FF080
:101A200070414FF02043026803EB8202C2F80411B8
:101A3000704730B5002100220023446844F00804B8
:101A400085682C43C5682C4305692C43456944EAE5
:101A50004524856944EA4531C4692468C5696D68CF
:101A600044EA0524C569AD6844EA0544C569ED68E2
:101A700044EA0562046A2468056A6D6844EA05243C
:101A8000056AAD6844EA0544056AED6844EA056301
:101A90000468102C05D14FF020442166A266E3664D
:101AA00007E0924C21604FF02044C4F88820934C0A
:101AB000236030BD016841F01001426841EA4221D3
:101AC000826841EA42318B4A1160C1680968C26884
:101AD000526841EA0221C268926841EA0241C26842
:101AE000D26841EA0261844A1160016909680269A9
:101AF000526841EA02210269926841EA02410269A0
:101B0000D26841EA02617E4A11604169096842690E
:101B1000526841EA02214269926841EA02414269FF
:101B2000D26841EA02614FF02042C2F8B01070471B
:101B3000002101600221416000218160C1600161DA
:101B400041618161C16101624FF48051416249008C
:101B500081620021C16201630F21426B1160426BFF
:101B60005160FF21426B91600F21426BD160426B4B
:101B70001161426B51610021426B91610F21826BB7
:101B80001160826B5160FF21826B91600F21826B2B
:101B9000D160826B1161826B51610021826B916116
:101BA000704710210160002141608160C1600161C6
:101BB00041618161FC21C2691160C2695160C269E1
:101BC0009160C269D160026A1160026A5160026A62
:101BD0009160026AD16070470021016041608160BC
:101BE000FC21C2681160C2685160C2689160C2681D
:101BF000D1600269116002695160026991600269F5
:101C0000D1604269116042695160426991604269E4
:101C1000D160704751B14FF0204252F8202042F07D
:101C200001024FF0204343F8202009E04FF020420A
:101C300052F82020334B1A404FF0204343F8202025
:101C4000704799B1102808D14FF02042126E42F02F
:101C500004024FF020431A661DE0244A126842F045
:101C600004024FF02043C3F8802014E0102809D16B
:101C70004FF02042126E234BDB1E1A404FF02043E0
:101C80001A6608E0194A12681F4B02EA03024FF075
:101C90002043C3F88020704740B11649096841F0DD
:101CA00004014FF02042C2F8A01008E01149096871
:101CB000154A01EA02014FF02042C2F8A010704715
:101CC00099B1102808D14FF02042126E42F0400224
:101CD0004FF020431A662DE0044A126842F0400299
:101CE0004FF02043C3F8802024E00FE0800000A0E4
:101CF000880000A0A00000A0A80000A08C0000A008
:101D0000AC0000A0FEFF0F00FBFF0F00102808D161
:101D10004FF02042126E684B1A404FF020431A6673
:101D200008E0664A1268644B02EA03024FF020435F
:101D3000C3F88020704701460020102903D14FF0DE
:101D40002042506F01E05E4A1068704710B5F2B152
:101D5000102807D14FF020435B6E0B434FF0204417
:101D6000636632E0B0F5807F08D1564B1B6843EACA
:101D700001034FF02044C4F8843026E0524B1B6826
:101D800043EA01034FF02044C4F8A4301DE01028BA
:101D900007D14FF020435B6E8B434FF020446366C6
:101DA00013E0B0F5807F08D1464B1B6823EA01039E
:101DB0004FF02044C4F8843007E0434B1B6823EA0B
:101DC00001034FF02044C4F8A43010BD10B5024602
:101DD00000200023102A03D14FF02044636E07E057
:101DE000B2F5807F02D1374C236801E0364C23687E
:101DF0000B4201D0012000E0002010BD102807D1C7
:101E00004FF02042526E8A434FF020435A6613E04F
:101E1000B0F5807F08D12B4A126822EA01024FF008
:101E20002043C3F8842007E0274A126822EA01020F
:101E30004FF02043C3F8A420704770B5024600203D
:101E4000002300240025102A03D14FF02046736E92
:101E500007E0B2F5807F02D11A4E336801E01A4ED6
:101E6000336803EA010403EAD10514B10DB101207E
:101E700000E0002070BD102808D14FF02042526EC3
:101E800022EAD1024FF020435A6613E0B0F5807F7A
:101E900008D10C4A126822EAD1024FF02043C3F85D
:101EA000842007E0084A126822EAD1024FF020435A
:101EB000C3F8A42070470000BFFF0F00800000A0FF
:101EC000940000A0840000A0A40000A00021002035
:101ED000674A126842F48032654B1A6000BF644A58
:101EE000126802F40030491C10B9B1F5A06FF6D1A8
:101EF0005F4A126812F4003F01D0012000E0002088
:101F0000012842D15B4A126842F01002594B1A6014
:101F10001A46126822F003021A601A46126842F04A
:101F200002021A60524A5268514B5A601A4652686D
:101F30005A601A46526842F480625A601A465268E1
:101F400022F47C125A601A46526842F4E8125A602F
:101F50001A46126842F080721A6000BF444A126842
:101F600012F0007FFAD0424A526822F00302404B3E
:101F70005A601A46526842F002025A6000BF3C4A58
:101F8000526802F00C02082AF9D1704710B5FFF729
:101F90009DFF10BD10B53648006840F0010034497F
:101FA000086008464068344908403149486008469E
:101FB0000068324908402E4908600846006820F44D
:101FC000802008600846406820F4FE0048604FF416
:101FD0001F008860FFF7DAFF4FF0006028490860B3
:101FE00010BD10B5002100200022214B5B6803F0DA
:101FF0000C0121B1042906D0082928D107E0214B82
:10200000214C236027E01F4B1F4C236023E0184B1B
:102010005B6803F47010164B5B6803F48032022394
:1020200003EB904022B9194B4343174C23600DE05A
:102030000F4B5B6813F4003F04D0144B4343124C26
:10204000236003E00F4B43430F4C236003E00D4B31
:102050000D4C236000BF00BF054B5B68C3F3031347
:102060000B4CE15C084B1B68CB40074C236010BD58
:1020700000100240002002400000FFF8FFFFF6FEC3
:1020800008ED00E000127A002000002000093D0069
:1020900024000020704700000FB4044910B503AAC3
:1020A000029800F0D5F810BC5DF814FB0400002085
:1020B0002DE9F04104460E4600200AE0E168204682
:1020C000884738B3252806D0D4E901219047206AF3
:1020D000401C2062F2E7E16820460027884705009F
:1020E00018D0A5F14100192802D820354FF4006717
:1020F0003246294620462760FEF754F840B10128B1
:1021000004D0F61D26F007060836D7E7361DD5E7BA
:102110002846D9E7206ABDE8F08100002DE9F041AA
:102120000746002510687529394616A411D0AFF36B
:102130000080002803DAC0F1000013A407E039682A
:102140008A0701D511A402E0490704D510A401258E
:1021500001E0AFF3008000210A2307F1240607E025
:10216000B0FBF3F203FB1200303070541046491CF0
:102170000028F5D12B4622463846BDE8F04100F054
:102180000DB80000000000002D0000002B00000032
:102190002000000070477047704770472DE9F047F6
:1021A0000D4604469246994600F1240801688806C7
:1021B00004D5E06921F01001216000E00120002732
:1021C000A84201DDA0EB0507A16907EB050202EBC0
:1021D0000300A1EB0000A0612068C00602D42046E5
:1021E000AFF30080002608E0D4E901211AF80600C8
:1021F0009047206A401C761C20624E45F4DB206824
:10220000C0060AD52046AFF3008006E0D4E90121DC
:1022100030209047206A401C2062381EA7F1010739
:10222000F4DC07E0D4E9012118F805009047206AA2
:10223000401C2062281EA5F10105F3DC2046AFF307
:10224000008021680220090600D40120BDE8F08743
:10225000074B70B50C467B4400F011F8054620464C
:1022600000F020F810B14FF0FF3070BD284670BD6F
:102270004FE2FFFF01694A1C02610878704700B510
:102280008FB0CDE901310021059105497944CDE9AF
:10229000031011466846FFF70BFF0FB000BD0000AA
:1022A000E5FFFFFFC06800F080007047754600F052
:1022B00029F8AE4605006946534620F007008546DA
:1022C00018B020B5FEF7E4FCBDE820404FF0000652
:1022D0004FF000074FF000084FF0000B21F007010E
:1022E000AC46ACE8C009ACE8C009ACE8C009ACE851
:1022F000C0098D4670470446AFF300802046FDF7C5
:1023000065FF0000004870475400002000487047F7
:102310005800002010B5FFF7F9FF4FF000010160F1
:1023200010BD00004423000800000020340000001D
:102330006C010008782300083400002084060000A7
:1023400088010008000000000000000000000000FC
:102350000000010203040102030406070809020445
:102360000608000000A24A0400000000000000006F
:0823700001020304060708093D
:0400000508000131BD
:00000001FF
