:020000040800F2
:10000000C007002009200008F1010008F3010008E2
:10001000F7010008FB010008FF01000800000000D4
:1000200000000000000000000000000003020008C3
:10003000050200080000000007020008090200088D
:100040002320000823200008232000082320000884
:100050002320000823200008232000082320000874
:100060002320000823200008232000082320000864
:100070002320000823200008232000082320000854
:100080002320000823200008232000082320000844
:100090002320000823200008232000082320000834
:1000A0002320000823200008232000082320000824
:1000B0002320000823200008232000082320000814
:1000C0002320000823200008232000082320000804
:1000D00023200008232000082320000823200008F4
:1000E00023200008232000082320000823200008E4
:1000F00023200008232000082320000823200008D4
:1001000023200008232000082320000823200008C3
:1001100023200008232000082320000823200008B3
:1001200023200008232000082320000823200008A3
:1001300000F002F800F04DF80AA090E8000C8244AC
:100140008344AAF10107DA4501D100F042F8AFF289
:10015000090EBAE80F0013F0010F18BFFB1A43F0A5
:10016000010318473087000050870000103A24BF71
:1001700078C878C1FAD8520724BF30C830C144BF0C
:1001800004680C607047000000230024002500264E
:10019000103A28BF78C1FBD8520728BF30C148BFEA
:1001A0000B607047662906F00284642903F05887C3
:1001B000782903F09187002070471FB504F0CEFA2C
:1001C00004000020002105F0BFFBE0601FBD10B55A
:1001D00010BD04F0E3FB1146FFF7EFFF00F020F83D
:1001E00004F001FC03B4FFF7F2FF03BC00F0CAF90E
:1001F000704700BFFEE700BFFEE700BFFEE700BF9D
:10020000FEE770477047704710B504480068401C0F
:100210000249086000F0CBF910BD00000400002086
:1002200003F07CF801F0AAF9554800684FF47A729F
:10023000B0FBF2F1B1F1807F01D301201DE021F08C
:100240007F40401E4FF0E022506150170F220028DF
:1002500007DA13071D0E4B4B00F00F04241F1D552A
:1002600003E013071C0E484B1C5400BF00204FF046
:10027000E022906107201061002008B100BFFEE776
:1002800000F09AF8FF21414800F053F903F0A6FA74
:10029000642000F099F903F055FE0A2000F094F96B
:1002A00003F0FFF903F0E3F83948017839A003F0CF
:1002B000A1FE08E03C480068022804D300203A4927
:1002C000086001F07FFDF5E708B501214FF4FA70F1
:1002D00002F024F84FF48071344802F000FA4FF431
:1002E0008070ADF8000010208DF8030003208DF819
:1002F000020069462D4802F047F904212C4802F01B
:10030000EEF90420ADF8000010208DF80300032062
:100310008DF802006946264802F036F9802125480A
:1003200002F0DDF98020ADF8000010208DF8030008
:1003300003208DF8020069461E4802F025F908BD29
:1003400001B508E0102001E0411EC8B20028FBD131
:100350000099491E009100990029F3D108BD01B50B
:1003600009E042F2F03001E0411E88B20028FBD1E2
:100370000099491E009100990029F2D108BD0000A2
:100380002800002018ED00E000E400E00038014003
:10039000000000204350552052756E2054696D6551
:1003A000733A2025640D0A00040000200008014073
:1003B000001801400010014000B585B00121052062
:1003C00001F0ACFF0121880301F0A8FF4FF4007099
:1003D000ADF8100018208DF8130003208DF81200DE
:1003E00004A96A4802F0D0F84FF48060ADF810001C
:1003F00004208DF8130004A9644802F0C5F804A98C
:10040000624802F0C1F84FF4E13000900020ADF8EE
:100410000400ADF80600ADF80800ADF80C000C20A3
:10042000ADF80A0069465A4802F03DFA01215848E1
:1004300002F0C5FA4021564802F0A9FB05B000BD04
:1004400008B54FF4E06001F0D1FF26208DF80000E0
:1004500005208DF8020001208DF80300684601F0A8
:10046000CAFF08BD00B585B00121052001F056FF87
:100470000121480401F05FFF0420ADF810001820AE
:100480008DF8130003208DF8120004A93F4802F0F4
:100490007BF80820ADF8100004208DF8130004A9A3
:1004A0003A4802F071F804A9384802F06DF84FF4A8
:1004B000165000900020ADF80400ADF80600ADF82D
:1004C0000800ADF80C000C20ADF80A006946314870
:1004D00002F0E9F9012240F225512E4802F07BFAA0
:1004E00001212C4802F06BFA40212A4802F04FFB10
:1004F000FFF7A6FF05B000BD70B504460D46E1B29A
:10050000234802F0C9FA00BF4021214802F032FB23
:100510000028F9D0204670BD10B5044600BF202148
:100520001B4802F027FB0028F9D0194802F0B8FA5E
:1005300010BD70B504460D4600BF8021204602F074
:1005400019FB0028F9D02946204602F0A5FA70BD13
:1005500070B505460C4600BF8021284602F00AFB14
:100560000028F9D0210A284602F096FA00BF80211F
:10057000284602F0FFFA0028F9D0E1B2284602F03E
:100580008BFA70BD014600BF7047000000080140B3
:100590000038014000440040017939B9016829B1AF
:1005A0000168491E016001D101210171704710B538
:1005B000002406E0184901EBC400FFF7EDFF601CC2
:1005C000C4B2042CF6DB10BD012800D10220124970
:1005D00008600021104A117104E00F4909790129CE
:1005E00000D100E0F9E700BF7047042800DB704746
:1005F000094A42F830100022074B03EBC0031A717E
:1006000000BFF4E70146042901DB002070470248DF
:1006100000EBC1000079F9E79800002008B501213E
:10062000080201F06EFE012140F2E91001F076FEB1
:1006300010208DF8030003208DF802004FF40040D5
:10064000ADF800006946FA4801F09EFF4FF4804083
:10065000ADF800006946F64801F096FF03208DF8DA
:10066000020018208DF803004CF20370ADF8000072
:100670006946F04801F088FF4FF68070ADF8000041
:100680006946ED4801F080FF1020ADF80000694692
:10069000E84801F079FF2020ADF800006946E54800
:1006A00001F072FF8020ADF800006946E14801F0DA
:1006B0006BFF0220ADF800006946E04801F064FFDE
:1006C0004FF40041DA4802F00AF84FF48041D8486C
:1006D00002F007F81021D74802F001F82021D54890
:1006E00001F0FDFF8021D34801F0F9FF08BD00B5FE
:1006F00097B0022001900020029005200390002076
:100700000490059006904FF08050079000200890CC
:10071000099008200A9010200B9000200C900E9059
:100720000F9010904FF48050119000201290139071
:10073000149001A81590169008A802F0C4FA01219F
:10074000002002F021FC17B000BD01B502E00098C6
:10075000401E009000980028F9D108BD10B54FF454
:100760008041B34801F0BDFF1420FFF7F8FD4FF4BE
:100770008041AF4801F0B3FF6420FFF7F0FD10BDEA
:1007800010B503464FF4FC6000EA411040EAC32074
:1007900002F01F04204380B210BD10B5044614B10E
:1007A000012C0CD105E041F23801032001F03BF8A7
:1007B0000BE041F23001032001F035F805E041F291
:1007C0001801032001F02FF800BF00BF10BD2DE974
:1007D000F04104460D4616461F462146502001F0C2
:1007E00022F8A019401E81B2512001F01CF82946C0
:1007F000522001F018F8E819401E81B2532001F090
:1008000012F82146202001F00EF82946212001F09F
:100810000AF8222001F003F8BDE8F0812DE9F04745
:1008200004460F4615461E46DDF82090214650200E
:1008300000F0F9FF6019401E81B2512000F0F3FF73
:100840003946522000F0EFFFB819401E81B2532004
:1008500000F0E9FF222000F0E2FF05FB06FA4FF06E
:10086000000804E0484600F0E4FF08F10108D04524
:10087000F8D3BDE8F0872DE9F04704460F4615464A
:100880001E46DDF820902146502000F0CCFF601974
:10089000401E81B2512000F0C6FF3946522000F0C0
:1008A000C2FFB819401E81B2532000F0BCFF2220C5
:1008B00000F0B5FF05FB06FA4FF0000804E04846DB
:1008C00000F0B7FF08F10108D045F8D3BDE8F08784
:1008D0002DE9F04704460F4615461E462146502096
:1008E00000F0A1FF6019401E81B2512000F09BFF73
:1008F0003946522000F097FFB819401E81B25320AC
:1009000000F091FF222000F08AFF05FB06F94FF06E
:10091000000805E04A48008800F08BFF08F1010854
:10092000C845F7D3BDE8F08710B50021502000F08E
:100930007AFFEF21512000F076FF0021522000F0D5
:1009400072FF40F23F11532000F06DFF222000F0B3
:1009500066FF10BD10B50446204600F06AFF10BDCA
:1009600070B504460D462146502000F05CFFEF2193
:10097000512000F058FF2946522000F054FF40F269
:100980003F11532000F04FFF2146202000F04BFF85
:100990002946212000F047FF222000F040FF29488F
:1009A000008800F046FF70BD70B504460E4615463F
:1009B0002146502000F037FFEF21512000F033FF97
:1009C0003146522000F02FFF40F23F11532000F03B
:1009D0002AFF2146202000F026FF3146212000F08A
:1009E00022FF222000F01BFF284600F022FF70BDEE
:1009F00070B5002400250CE0002603E0284600F036
:100A000018FF761CB6F5965FF8D341F21110054435
:100A1000641C102CF0D370BD70B504460D46214601
:100A2000202000F000FF2946212000F0FCFE70BDD0
:100A3000000C01400014014000180140002001405A
:100A40000E0000200C0000200146002901DA484277
:100A500070470846FCE72DE9F05F04460D46164650
:100A60001F46B44206D1BD4204D129462046FFF7B5
:100A700077FF49E0781BFFF7E7FF8346301BFFF75E
:100A8000E3FF834520D9BD4206DDAA463D465746D1
:100A9000A24634460AF0FF06A94612E0A9EB05007B
:100AA000311B4843791BB0FBF1F020441FFA80F85A
:100AB00008F0FF004946FFF753FF09F101001FFA54
:100AC00080F9B945EADB1FE0B44206DDAA463D469F
:100AD0005746A24634460AF0FF06A04612E0A8EBAD
:100AE0000400791B4843311BB0FBF1F028441FFA86
:100AF00080F908F0FF004946FFF732FF08F10100D6
:100B00001FFA80F8B045EADBBDE8F09F2DE9F05F01
:100B100004460E4617469846E82C02DCB6F5987F48
:100B200001DDBDE8F09F0020FFF737FE2146502091
:100B300000F079FE04F10B01512000F074FE314603
:100B4000522000F070FE701D81B2532000F06BFE49
:100B50002146202000F067FE3146212000F063FE90
:100B6000222000F05CFEA8F1200000F0FF08002524
:100B700037E008EB4800FE4901EB800010F805A0C3
:100B80004FF0000928E01AF0010F04D0F94800885E
:100B900000F04FFE1AE027B94FF6FF7000F049FE53
:100BA00014E0012F12D16119202000F03CFE06EB69
:100BB000090081B2212000F036FE222000F02FFE35
:100BC00000F03AFE8346584600F033FE4FEA6A0AC8
:100BD00009F1010000F0FF09B9F1060FD3DB681C31
:100BE000C5B20C2DC5DB00BF9BE72DE9F05F0446C5
:100BF0000E4617469846E82C02DCB6F5987F01DDD4
:100C0000BDE8F09F0120FFF7C8FD2146502000F00D
:100C10000AFE611D512000F006FE3146522000F010
:100C200002FE06F10B0081B2532000F0FCFD2146CC
:100C3000202000F0F8FD3146212000F0F4FD2220B4
:100C400000F0EDFDA8F1200000F0FF08002539E0DC
:100C500008EB4800C64901EB8000C5F10C0110F813
:100C600001A04FF0000928E01AF0010F04D0C1489C
:100C7000008800F0DEFD1AE027B94FF6FF7000F0A3
:100C8000D8FD14E0012F12D104EB0901202000F05F
:100C9000CAFD701981B2212000F0C5FD222000F0AC
:100CA000BEFD00F0C9FD8346584600F0C2FD4FEA84
:100CB0006A0A09F1010000F0FF09B9F1060FD3DB60
:100CC000681CC5B20C2DC3DB00BF99E72DE9F05FAE
:100CD00004460E4617469946E82C02DCB6F5987F86
:100CE00001DDBDE8F09F0020FFF757FD21465020B1
:100CF00000F099FD04F10F01512000F094FD314600
:100D0000522000F090FDF01D81B2532000F08BFDC9
:100D10002146202000F087FD3146212000F083FD90
:100D2000222000F07CFD002539E0A9F1200005EB30
:100D30000010914911F800A04FF000082AE01AF0C5
:100D4000800F04D08B48008800F073FD1AE027B9AB
:100D50004FF6FF7000F06DFD14E0012F12D1611904
:100D6000202000F060FD06EB080081B2212000F099
:100D70005AFD222000F053FD00F05EFD83465846E8
:100D800000F057FD4FEA4A604FEA106A08F101008F
:100D900000F0FF08B8F1080FD1DB681CC5B2102DB8
:100DA000C3DB00BF9DE72DE9F05F04460E46174602
:100DB0009946E82C02DCB6F5987F01DDBDE8F09F8E
:100DC0000120FFF7EAFC2146502000F02CFDE11D38
:100DD000512000F028FD3146522000F024FD06F19C
:100DE0000F0081B2532000F01EFD2146202000F0AC
:100DF0001AFD3146212000F016FD222000F00FFDE3
:100E000000253BE0A9F12000102101EB0010401B60
:100E1000594911F800A04FF000082AE01AF0800F9D
:100E200004D05448008800F004FD1AE027B94FF6BA
:100E3000FF7000F0FEFC14E0012F12D104EB08015A
:100E4000202000F0F0FC701981B2212000F0EBFCB2
:100E5000222000F0E4FC00F0EFFC8346584600F04E
:100E6000E8FC4FEA4A604FEA106A08F1010000F01E
:100E7000FF08B8F1080FD1DB681CC5B2102DC1DB2B
:100E800000BF9BE72DE9F04705460E4691461F46F9
:100E90003C4605F0FF080AE023784A4641463046C2
:100EA000FFF714FF641C08F1080000F0FF08207829
:100EB0000028F1D1BDE8F0872DE9F04705460E4640
:100EC00090461F463C4606F0FF0909E0237842465B
:100ED00049462846FFF767FF641C05F10800C5B2C4
:100EE00020780028F2D1BDE8F08710B50246012035
:100EF00000E050430B00A1F10104E1B2F9D110BDB3
:100F00002DE9F05F80460F4691461D460024A2461B
:100F10002E462DB930234A4639464046FFF7F6FDA6
:100F200004E00A20B6FBF0F6601CC4B2002EF8D133
:100F3000A2461CE0601EC1B20A20FFF7D6FF06469B
:100F4000B5FBF6F00A21B0FBF1F201FB120000F153
:100F5000300BAAEB040000EB400007EB400081B22D
:100F60005B464A464046FFF7D1FD601EC4B205E02D
:100F7000727C00080C000020E6800008002CD9D10B
:100F8000BDE8F09F2DE9F04104460E4617461D4688
:100F90001BE0E82E03DD002604F10C0084B2B4F55A
:100FA000987F09DD0020064604464FF4A073F02226
:100FB00000210846FFF78CFC2B783A462146304644
:100FC000FFF7A4FDA01D84B26D1C28780028E0D195
:100FD000BDE8F0812DE9F04105460E4617461C4656
:100FE0001BE0E82D03DD002506F10C0086B2B6F506
:100FF000987F09DD0020054606464FF4A073F022D5
:1010000000210846FFF764FC23783A46314628461B
:10101000FFF7EBFDA81DC5B2641C20780028E0D1C5
:10102000BDE8F0812DE9F04F89B006460F469346A2
:101030009946DDF848A04FF0000800242AE001A8F6
:1010400010F814804FF6FF7000EA08286000401C7A
:1010500001A9085C40EA0808002517E0C5F10F0067
:1010600048FA00F010F0010F07D0721991B23A1946
:10107000D0B24A46FFF798FC06E0721991B23A19CD
:10108000D0B25246FFF790FC681CC5B2102DE5DBCC
:10109000601CC4B2102CD2DB09B0BDE8F08F2DE982
:1010A000F04F89B006460F4693469946DDF848A0B2
:1010B0004FF000080120FFF770FB00242EE001A88C
:1010C00010F814804FF6FF7000EA08286000401CFA
:1010D00001A9085C40EA080800251BE0C5F10F00E3
:1010E00048FA00F010F0010F09D007F11002121BAE
:1010F00091B27219D0B24A46FFF756FC08E007F1E8
:101100001002121B91B27219D0B25246FFF74CFC7A
:10111000681CC5B2102DE1DB601CC4B2102CCEDB04
:1011200009B0BDE8F08F2DE9F04F89B006460F46B3
:1011300093469946DDF848A04FF000080020FFF7DD
:101140002CFB002430E001A810F814804FF6FF704B
:1011500000EA08286000401C01A9085C40EA080871
:1011600000251DE0C5F10F0048FA00F010F0010F56
:1011700007D0721991B23A19D0B24A46FFF714FC5F
:101180000CE0BAF1000F08D1721991B23A19D0B23D
:101190004FF6FF72FFF708FC00E000BF681CC5B205
:1011A000102DDFDB601CC4B2102CCCDB09B0BDE815
:1011B000F08F2DE9F04F89B006460F4693469946C9
:1011C000DDF848A04FF000080120FFF7E6FA002400
:1011D00032E001A810F814804FF6FF7000EA0828EA
:1011E0006000401C01A9085C40EA080800251FE0D7
:1011F000C5F10F0048FA00F010F0010F09D007F117
:101200001002121B91B27219D0B24A46FFF7CCFB02
:101210000CE0BAF1000F08D1321991B27A19D0B2AC
:101220004FF6FF72FFF7C0FB00E000BF681CC5B2BD
:10123000102DDDDB601CC4B2102CCADB09B0BDE888
:10124000F08F2DE9F84F05460E4617469946DDF812
:1012500028A03C46A846B3460CE04B4622465946D9
:101260004046CDF800A0FFF7DDFEA41C08F11000F9
:101270001FFA80F820780028EFD1BDE8F88F2DE91B
:10128000F84F05460E4617469946DDF828A03C461D
:10129000A846B3460CE04B46224659464046CDF898
:1012A00000A0FFF7FCFEA41C08F110001FFA80F854
:1012B00020780028EFD1BDE8F88F2DE9F84F0546DA
:1012C0000E4617469946DDF828A03C46A846B34688
:1012D0000CE04B46224659464046CDF800A0FFF7A9
:1012E00022FFA41C08F110001FFA80F820780028C3
:1012F000EFD1BDE8F88F2DE9F84F05460E461746A9
:101300009946DDF828A03C46A846B3460CE04B467B
:10131000224659464046CDF800A0FFF74AFFA41CDC
:1013200008F110001FFA80F820780028EFD1BDE8FE
:10133000F88F2DE9F84F06460F4690469A46DDF89D
:10134000289044463546BB4626E020787D280ADAB8
:101350002378E8B24A465946FFF725FD641C05F19B
:10136000080085B218E02078A32809D1E8B220232C
:101370004A465946FFF717FDA41C05F1080085B23F
:101380005346224659462846CDF80090FFF711FFF4
:10139000A41C05F1100085B220780028D5D1BDE845
:1013A000F88F2DE9F05F0546884616461F46DDF8A2
:1013B00028900024A246A3462946502000F033FA84
:1013C000A819401E81B2512000F02DFA414652204A
:1013D00000F029FA08EB0700401E81B2532000F00C
:1013E00022FA2946202000F01EFA4146212000F072
:1013F0001AFA222000F013FA06FB07F04FEA400A1F
:101400000AE0601C19F8000019F8041000EB012B29
:10141000584600F00EFAA41C5445F2D3BDE8F09FE4
:10142000F74A108070472DE9F04104460D461646F4
:101430001F460020FFF7B1F92146202000F0F3F904
:101440002946212000F0EFF92146502000F0EBF969
:101450002946522000F0E7F9781E204481B251203D
:1014600000F0E1F9701E284481B2532000F0DBF94E
:1014700041F22801032000F0D6F9222000F0CFF934
:10148000BDE8F08110B50020FFF787F9222000F0B9
:10149000C6F910BD10B50020FFF77FF910BD70B57B
:1014A00004460D462146202000F0BDF929462120A2
:1014B00000F0B9F9222000F0B2F900F0BDF970BDDA
:1014C0002DE9F04706460F4690460320A0EB480959
:1014D000002445464EE07A1991B23219D0B2C94A79
:1014E0001288FFF761FA7A1B91B23219D0B2C54A5D
:1014F0001288FFF759FA7A1991B2321BD0B2C14A59
:101500001288FFF751FA7A1B91B2321BD0B2BD4A52
:101510001288FFF749FA3A1991B27219D0B2B94A52
:101520001288FFF741FA3A1B91B27219D0B2B54A4C
:101530001288FFF739FA3A1991B2721BD0B2B14A48
:101540001288FFF731FA3A1B91B2721BD0B2AD4A42
:101550001288FFF729FAB9F1000F04DA062000EB30
:101560008400814405E0601B0A2101EB8000814476
:101570006D1E641CAC42AED9BDE8F08710B50024E6
:10158000FFF74CF8FFF7B3F84FF400419E4801F025
:10159000A8F81420FEF7E3FE4FF400419A4801F04A
:1015A0009EF8FFF7DBF8002000F039F900F044F96D
:1015B000044643F20801E32000F035F91221E72048
:1015C00000F031F941F23121EF2000F02CF9012136
:1015D000002000F028F94FF48071012000F023F979
:1015E0004FF42741602000F01EF94FF4E061022023
:1015F00000F019F941F23001032000F014F9002144
:10160000042000F010F940F20221082000F00BF94C
:101610000021092000F007F900210A2000F003F959
:1016200000210C2000F0FFF800210D2000F0FBF855
:1016300000210F2000F0F7F80021102000F0F3F84F
:101640000721112000F0EFF80021122000F0EBF844
:101650000021132000F0E7F8C820FFF776F841F2E8
:101660009061102000F0DFF840F22721112000F0F7
:10167000DAF83220FFF769F81C21122000F0D3F8C5
:101680003220FFF762F84FF4C051132000F0CBF87E
:101690001C21292000F0C7F80D212B2000F0C3F8F1
:1016A0003220FFF752F80021202000F0BCF8002182
:1016B000212000F0B8F80721302000F0B4F840F203
:1016C0000231312000F0AFF840F20511322000F075
:1016D000AAF840F20621352000F0A5F840F60801EE
:1016E000362000F0A0F840F20621372000F09BF8E9
:1016F00040F20451382000F096F80721392000F01C
:1017000092F840F205113C2000F08DF840F60801F7
:101710003D2000F088F80021502000F084F8EF21EF
:10172000512000F080F80021522000F07CF840F2B7
:101730003F11532000F077F84FF42741602000F06C
:1017400072F80121612000F06EF800216A2000F09B
:101750006AF80021802000F066F80021812000F066
:1017600062F80021822000F05EF80021832000F062
:101770005AF80021842000F056F80021852000F05E
:1017800052F81021902000F04EF80021922000F035
:101790004AF80321932000F046F84FF48871952011
:1017A00000F041F80021972000F03DF8002198203A
:1017B00000F039F840F23311072000F034F801202E
:1017C000FEF7EBFF0021502000F02DF8EF21512013
:1017D00000F029F80021522000F025F840F23F11D6
:1017E000532000F020F80021202000F01CF80021F8
:1017F000212000F018F8222000F011F800240AE05F
:10180000001000600E000020000C01404FF47840F2
:1018100000F00FF8641CB4F5963FF7D310BD4FF0FD
:10182000C041088070474FF0C0421080054A1180C7
:101830007047044A108070470020024908880888D1
:10184000704700000010006070B58EB000240026C4
:10185000AA222146641C01A842542146641C425419
:1018600002222146641C425400222146641C425438
:10187000FE48C088C0F307222146641C01A84254D8
:10188000FA48C088C2B22146641C01A84254F748F5
:101890000089C0F307222146641C01A84254F34882
:1018A0000089C2B22046611CCCB201A90A54EF489B
:1018B0004089C0F307222046611CCCB201A90A541A
:1018C000EA484089C2B22046611CCCB201A90A5440
:1018D000E6480088C0F307222146601CC4B201A874
:1018E0004254E2480088C2B22046611CCCB201A931
:1018F0000A54DE484088C0F307222046611CCCB25F
:1019000001A90A54D9484088C2B22046611CCCB211
:1019100001A90A54D5488088C0F307222046611CDB
:10192000CCB201A90A54D1488088C2B22046611CB9
:10193000CCB201A90A5400222046611CCCB201A9F4
:101940000A542046611CCCB201A90A542046611CED
:10195000CCB201A90A542046611CCCB201A90A5498
:101960002046611CCCB201A90A542046611CCCB2AD
:1019700001A90A54201FC0B28DF80700002505E018
:1019800001A8405D3044C6B2681CC5B2A542F7DB71
:101990002046611CCCB201A90E54002506E001A826
:1019A000415DB348FEF7C5FD681CC5B2A542F6DB34
:1019B0000EB070BDF0B58FB000240026002000905E
:1019C000AA222146641C02A842542146641C4254A7
:1019D00001222146641C425400222146641C4254C8
:1019E000A249486AA34904F0A1FE074604F06AFE32
:1019F00000B20190BDF80400C0F307222146641C28
:101A000002A84254BDF80400C2B22146641C02A8D8
:101A100042549649886A974904F088FE074604F0C4
:101A200051FE00B20190BDF80400C0F30722214628
:101A3000641C02A84254BDF80400C2B22046611CD6
:101A4000CCB202A90A5400200190BDF80400C0F3F2
:101A500007222046611CCCB202A90A54BDF804003A
:101A6000C2B22046611CCCB202A90A5400200190E7
:101A7000BDF80400C0F307222046611CCCB202A9C5
:101A80000A54BDF80400C2B22046611CCCB202A9BF
:101A90000A540098020E2146601CC4B202A84254A7
:101AA0000098C0F307422046611CCCB202A90A5438
:101AB0000098C0F307222046611CCCB202A90A5448
:101AC0000098C2B22046611CCCB202A90A54A022DE
:101AD0002146601CC4B202A84254201FC0B28DF837
:101AE0000B00002505E002A8405D3044C6B2681C2A
:101AF000C5B2A542F7DB2046611CCCB202A90E5448
:101B0000002506E002A8415D5948FEF712FD681C59
:101B1000C5B2A542F6DB0FB0F0BD2DE9F04F87B09E
:101B2000524A121D911E881E02F02CFA4F4800885E
:101B30005149524A127821F812004C4840885049C5
:101B40004E4A127821F81200484880884D494B4A85
:101B5000127821F8120049480078401C4749087063
:101B6000084600780A2801DB0020087000250026BE
:101B7000002700240DE0404830F914000544404897
:101B800030F9140006443F4830F914000744601C43
:101B9000C4B20A2CEFDB0A2095FBF0F00C3800B23F
:101BA000324908800A2096FBF0F00C3800B24880D9
:101BB0000A2097FBF0F00C3800B28880B1F90000E1
:101BC00004F09CFD834604F02DFC00222E4BCDE951
:101BD000000104F04DF900222C4BCDE9020103F085
:101BE000ABFFCDE9040103F0C5FE80461F49B1F902
:101BF000020004F083FD834604F014FC0022224B13
:101C0000CDE9000104F034F90022204BCDE90201B6
:101C100003F092FFCDE9040103F0ACFE81461349C5
:101C2000B1F9040004F06AFD834604F0FBFB0022D6
:101C3000154BCDE9000104F01BF90022134BCDE94F
:101C4000020103F079FFCDE9040103F093FE82461F
:101C500089F0004B0E49584604F068FD0349C860FE
:101C60000B49404604F062FD004913E030010020BA
:101C7000003801400000C842B800002010000020D9
:101C8000CC000020E00000200080214000408F4078
:101C900035FA8E3C0861BA49504604F047FDB9490F
:101CA000486107B0BDE8F08F2DE9F05FB54A0A3210
:101CB000911E881E01F041FCB248C088B249B34A67
:101CC000127821F81200AF480089B149AF4A127862
:101CD00021F81200AB484189AE48AC4A127820F88E
:101CE0001210AA480078401CA849087008460078DD
:101CF0000A2801DB0020087000250026A9460024E0
:101D00000DE0A14830F914000544A14830F9140051
:101D10000644A04830F914008144601CC4B20A2C67
:101D2000EFDB0A2095FBF0F000B29649C8800A204C
:101D300096FBF0F000B208810A2099FBF0F000B2A7
:101D40004881B1F9060004F07CF807464FF03332C1
:101D5000914B04F08DF8824603F00CFE89498861AE
:101D6000B1F9080004F06DF807464FF033328A4BA2
:101D700004F07EF8824603F0FDFD8249C861B1F9A6
:101D80000A0004F05EF807464FF03332824B04F04D
:101D90006FF8824603F0EEFD7A49086288697F4950
:101DA00004F0CEFB77498861C8697C4904F0C8FB20
:101DB0007449C861086A794904F0C2FB7149086234
:101DC000BDE8F09F2DE9F04F91B0FFF7A6FEFFF7B9
:101DD0006BFF6C48006A6B49C9696A4CCDE9001019
:101DE000A36962692169E06801F00AFE2246116A6E
:101DF000106A04F09BFC22460890D169D06904F077
:101E000095FC0790089904F039FB099004F00AFB4F
:101E1000CDE90A0103F072FD82468B4621468869AE
:101E200004F000FB804652465B4603F085FECDE998
:101E30000C0103F091FB06464FF00052584B04F0A2
:101E400017F8044603F096FD0F904E4A116A106A87
:101E500004F06CFC4B4A08909169906904F066FCB0
:101E60000790089904F00AFB099004F0DBFA824617
:101E700003F044FD804689464249C86904F0D2FA1D
:101E8000064642464B4603F057FECDE90A0103F0F1
:101E900063FB4FF00052424BCDE90C0103F0E8FF29
:101EA000044603F067FD0E903E480078401C3D4913
:101EB00008700846007805285EDB002008700E9840
:101EC00004F0B0FA04460D462E49886A04F0AAFAD6
:101ED000804689460F9804F0A5FA06460F46294920
:101EE000486A04F09FFA824652460B462EA08DE8BF
:101EF000C003CDE9044502F07DF82249086A04F0E8
:101F000091FA04460D461F49C86904F08BFA06464B
:101F10000F461C49886904F085FA804689461949AC
:101F2000486904F07FFA82468B461649086904F036
:101F300079FACDE90C011349C86804F073FACDE9C8
:101F400002ABCDE90489CDE90667CDE90845CDE9C5
:101F50000A01DDE90C01CDE900011BA0DDE90A233E
:101F600002F048F80748B0F90430B0F90220B0F99F
:101F7000001020A002F03EF811B0BDE8F08F000084
:101F800035FA8E3C30010020F400002011000020C2
:101F9000080100201C01002033330F4000007A4468
:101FA000DCA54C401200002025352E32662C25354C
:101FB0002E32662C2020202025352E32662C253509
:101FC0002E32660D0A00000020202020202025351A
:101FD0002E32662C25352E32662C25352E32662C77
:101FE00025352E32662C25352E32662C25352E329F
:101FF0006600000020202020202025642C25642C51
:1020000025640D0A00000000094880470948004780
:10201000FEE7FEE7FEE7FEE7FEE7FEE7FEE7FEE798
:10202000FEE7FEE704480549054A064B70470000F5
:102030001D33000831010008C0010020C007002046
:10204000C0030020C0030020DD48006840F001000C
:10205000DB49086008464068DA490840D8494860CA
:1020600008460068D8490840D54908600846006815
:1020700020F4802008600846406820F4FE00486094
:102080004FF41F0088607047CD49096821F4803102
:10209000CB4A11601146096821F480211160B0F526
:1020A000803F03D0B0F5802F0ED106E0C449096807
:1020B00041F48031C24A116007E0C149096841F426
:1020C000A021BF4A116000E000BF00BF704710B5FB
:1020D00001460022002300204A11012A02D1B84CF7
:1020E000236806E0022A02D1B54C236A01E0B44C11
:1020F000636A01F01F02012494401C4201D00120B8
:1021000000E0002010BD38B500200090002400251C
:1021100000BF3120FFF7DBFF05460098401C009010
:102120000098B0F5A06F01D0002DF2D03120FFF75C
:10213000CEFF08B1012400E00024204638BD01464E
:1021400000209F4A106820F0F80040EAC1001060AB
:1021500070479E490860704702460020984B5868B7
:1021600020F47C1042EA01031843954B58607047F5
:1021700096490866704701460020914A506820F051
:1021800003000843506070478D48406800F00C0021
:102190007047014600208A4A506820F0F00008434A
:1021A0005060704701460020854A506820F4E06086
:1021B00008435060704701460020814A506820F46F
:1021C000605040EAC1005060704729B17C4A527AA1
:1021D00002437B4B5A7204E0794A527A8243784B2D
:1021E0005A7270477A490860704701460020744A65
:1021F000506820F440400843506070470021754A01
:1022000011706F4A82F82010012802D0042808D1EA
:1022100003E001216F4A117004E005216D4A11703D
:1022200000E000BF00BF70476B4908607047644919
:10223000096A0143624A116270476749443908607C
:10224000704730B500210022002400235C4D6D68EA
:1022500005F00C0121B1042905D0082923D105E09E
:102260005E4D056022E05D4D05601FE0544D6D68D8
:1022700005F47012524D6D6805F48034022505EBAB
:1022800092421CB9564D554305600BE04C4D6D68AC
:1022900015F4003F03D0524D5543056002E04F4D09
:1022A0005543056002E04D4D056000BF00BF444D41
:1022B0006D6805F0F00109094A4D6B5C0568DD4069
:1022C00045603F4D6D6805F4E061090A454D6B5C62
:1022D0004568DD4085603A4D6D6805F46051C90A76
:1022E000404D6B5C4568DD40C560354D6D6805F45B
:1022F0004041890B3C4D6B5CC568B5FBF3F505614E
:1023000030BD29B12E4A526902432D4B5A6104E077
:102310002B4A526982432A4B5A61704729B1284A95
:1023200092690243264B9A6104E0254A92698243EE
:10233000234B9A61704729B1214AD2690243204B4D
:10234000DA6104E01E4AD26982431D4BDA617047AC
:1023500029B11B4AD2680243194BDA6004E0184ADB
:10236000D2688243164BDA60704729B1144A126969
:102370000243134B1A6104E0114A12698243104B65
:102380001A61704714494039086070470F49C864A2
:1023900070470B49C87170470948406A40F0807027
:1023A00007494862704701460020054A92680A4280
:1023B00001D0012000E00020704701498872704779
:1023C000001002400000FFF8FFFFF6FE000042424E
:1023D000D8004242201002408004424200127A009B
:1023E00000093D0013000020230000203149014373
:1023F000314A1160704770B5002100230F22C47864
:102400000CB32D4C246804F4E064C4F5E064210AA4
:10241000C1F10403CA40447804FA03F184781440FB
:1024200021430901254C0678A155047804F01F05C5
:102430000124AC4005786D114FF0E02606EB8505D0
:10244000C5F8004109E0047804F01F050124AC4000
:102450001B4D0678761145F8264070BD194A0A4092
:102460000243154B1B1F1A60704739B1124A121DE7
:1024700012680243104B1B1D1A6006E00E4A121D23
:10248000126882430C4B1B1D1A607047042808D148
:102490004FF0E021096941F004014FF0E0221161A1
:1024A00007E04FF0E021096921F004014FF0E0223C
:1024B000116170470000FA050CED00E000E400E057
:1024C00080E100E080FFFF1F10B50446CA48844247
:1024D00008D101210420FFF73BFF00210420FFF772
:1024E00037FF46E0C548844208D101210820FFF7A4
:1024F0002FFF00210820FFF72BFF3AE0C04884425D
:1025000008D101211020FFF723FF00211020FFF741
:102510001FFF2EE0BB48844208D101212020FFF795
:1025200017FF00212020FFF713FF22E0B648844266
:1025300008D101214020FFF70BFF00214020FFF7C9
:1025400007FF16E0B148844208D101218020FFF73F
:10255000FFFE00218020FFF7FBFE0AE0AC4884422A
:1025600007D101218015FFF7F3FE0021A015FFF729
:10257000EFFE10BD10B501210846FFF7E9FE00216E
:102580000120FFF7E5FE10BD2DE9F04102460025D0
:102590000026002000230024002791F803C00CF03F
:1025A0000F0591F803C01CF0100F03D091F802C082
:1025B0004CEA050591F800C0BCF1000F31D0146859
:1025C00000202BE04FF0010C0CFA00F3B1F800C032
:1025D0000CEA03069E4220D183004FF00F0C0CFA48
:1025E00003F7BC4305FA03FC4CEA040491F803C06A
:1025F000BCF1280F06D14FF0010C0CFA00FCC2F818
:1026000014C00AE091F803C0BCF1480F05D14FF0A7
:10261000010C0CFA00FCC2F810C0401C0828D1D3F1
:102620001460B1F800C0BCF1FF0F34DD5468002025
:102630002EE000F1080C4FF0010808FA0CF3B1F895
:1026400000C00CEA03069E4221D183004FF00F0C1C
:102650000CFA03F7BC4305FA03FC4CEA040491F8B6
:1026600003C0BCF1280F05D100F1080C08FA0CF8E2
:10267000C2F8148091F803C0BCF1480F07D100F1F3
:10268000080C4FF0010808FA0CF8C2F81080401C42
:102690000828CED35460BDE8F0814FF6FF71018069
:1026A000022181700421C1707047024600209368A6
:1026B0000B4201D0012000E00020704701468868ED
:1026C00080B2704702460020D3680B4201D001203F
:1026D00000E0002070470146C86880B27047016181
:1026E0007047416170470AB1016100E04161704784
:1026F000C16070474FF480320A4382618161826118
:1027000082698269704702460020424B18684FF682
:102710008073184040EA021008433E4B186070472F
:102720003D49C8617047F0B50A46002300240021E6
:10273000002500F00046B6F1004F02D1354EF16998
:1027400001E0344E7168C0F3034583B200F44016D3
:10275000B6F5401F08D121F070612E4E766826F044
:1027600070662C4F7E6012E000F48016B6F5801F74
:1027700006D1032606FA05F4A14341F0706106E094
:10278000460D360103FA06F6B14341F0706122B1FD
:10279000460D360103FA06F6314300F00046B6F165
:1027A000004F02D11B4EF16101E01A4E7160F0BD85
:1027B00030B500228B071C0F0F2303FA04F2154BD0
:1027C00008338C1053F824309343124C08348D1086
:1027D00044F8253023468C1053F824308C07240FFE
:1027E00000FA04F423430B4C08348D1044F82530D0
:1027F00030BD0A490860704700080140000C0140E4
:10280000001001400014014000180140001C01406C
:10281000002001400000014000002042DC00204276
:1028200010B50446FB48844209D101218803FFF713
:102830008FFD00214FF48040FFF78AFD32E0F6481B
:10284000844209D101214804FFF78FFD00214FF494
:102850000030FFF78AFD25E0F048844209D10121CC
:102860008804FFF782FD00214FF48020FFF77DFDF3
:1028700018E0EB48844209D10121C804FFF775FD37
:1028800000214FF40020FFF770FD0BE0E548844283
:1028900008D101210805FFF768FD00214FF48010E1
:1028A000FFF763FD10BD2DE9F04786B005460E46E3
:1028B0000024A24600BFA1460027B08900B100BF96
:1028C0002F462C8A4CF6FF700440F08804432C827B
:1028D000AC894EF6F3100440B08831890843718901
:1028E00008430443AC81AC8A4FF6FF400440B089F2
:1028F0000443AC8201A8FFF7A4FCC648874202D17A
:10290000DDF810A001E0DDF80CA0A88910F4004F5C
:1029100008D00AEBCA0000EB0A1031684900B0FB8E
:10292000F1F807E00AEBCA0000EB0A1031688900F1
:10293000B0FBF1F86420B8FBF0F004012009642139
:1029400001FB1089A88910F4004F08D0322000EB59
:10295000C900B0FBF1F000F00700044308E03220AA
:1029600000EB09106421B0FBF1F000F00F0004430C
:102970002C8106B0BDE8F0874FF4165101600021AC
:102980008180C18001810C214181002181817047BA
:1029900010B502460020108A4FF2FF0318400B8842
:1029A0004C8823438C882343CC88234318431082CC
:1029B00010BD0021018041808180C180704721B11C
:1029C000828942F40052828104E082894DF6FF73CD
:1029D0001A4082817047F0B5034600240026002586
:1029E0000020A1F510676A3F00D100BF1846C1F36F
:1029F000421401F01F06012707FA06F5012C01D148
:102A00000C3004E0022C01D1103000E014301AB177
:102A100007682F43076002E00768AF430760F0BD17
:102A20001AB1838A0B43838202E0838A8B438382B9
:102A30007047028A4FF6F0731A400282028A0A43F4
:102A40000282704782894FF2FF731A408281828925
:102A50000A438281704721B1828942F00202828159
:102A600004E082894FF6FD731A4082817047028A22
:102A70004FF6DF731A400282028A0A4302827047CD
:102A800021B1028A42F48042028204E0028A4BF6BB
:102A9000FF731A4002827047C1F3080282807047B8
:102AA00001468888C0F308007047818941F0010120
:102AB00081817047028BD2B20283028B42EA0122EB
:102AC00002837047028B02F47F420283028B0A4327
:102AD0000283704721B1828A42F02002828204E0A0
:102AE000828A4FF6DF731A408282704721B1828A50
:102AF00042F01002828204E0828A4FF6EF731A409D
:102B00008282704721B1828A42F00802828204E008
:102B1000828A4FF6F7731A408282704721B1828908
:102B200042F40042828103E08289C2F30E02828174
:102B3000704721B1828A42F40062828204E0828A74
:102B40004FF2FF731A4082827047828A4FF6FB73FE
:102B50001A408282828A0A438282704721B1828A25
:102B600042F00202828204E0828A4FF6FD731A402C
:102B70008282704702460020B1F5007F00D100BF7D
:102B800013880B4201D0012000E00020704701F4BF
:102B90000072B2F5007F00D100BFCA4302807047C7
:102BA00070B502460024002300250020A1F5106620
:102BB0006A3E00D100BFC1F3421501F01F03012698
:102BC00006FA03F3012D02D19689334006E0022D67
:102BD00002D1168A334001E0968A33400C12012656
:102BE00006FA04F41688344013B10CB1012000E059
:102BF000002070BD10B500220023A1F510646A3CCE
:102C000000D100BF0A1201249440A3B2DC43048027
:102C100010BD000000380140004400400048004062
:102C2000004C00400050004030B943F2DB014FF04F
:102C3000204242F8201005E043F2D2014FF020423A
:102C400042F820106FF07042411C4FF0204343F8CF
:102C5000212011461A4602EB8002C2F80411704787
:102C600010280AD118214FF02042116640215166E8
:102C70004FF0FC319166D16610E01821F84A1160DE
:102C80004FF040014FF02042C2F884104FF0FC3169
:102C9000F44A11604FF02042C2F88C10704718209F
:102CA000F14908604FF000004FF02041C1F8A40046
:102CB0004FF0FC30ED49086001F10401086001F1BA
:102CC000040108607047D0E901121143C268114342
:102CD000026911434269114382691143C269114378
:102CE000026A1143426A1143826A1143C26A114364
:102CF000026B11434FF02043026843F822108168B1
:102D0000082908D11A46016852F8211041F0400103
:102D1000026843F82210416B0968426B526841EA2D
:102D20000211426B926841EA0221426B928941EAA8
:102D30000241426B128A41EA0251426B127D41EA22
:102D40000261426B926911430268521C4FF02043AA
:102D500043F82210C16AB1F5804F1AD1816B09681E
:102D6000826B526841EA0211826B926841EA022149
:102D7000826B128A41EA0251826B127D41EA026142
:102D8000826B92691143026803EB8202C2F804115C
:102D900008E06FF070414FF02043026803EB8202BD
:102DA000C2F80411704730B50021002200234468A6
:102DB00044F0080485682C43C5682C4305692C43FE
:102DC000456944EA4524856944EA4531C469246873
:102DD000C5696D6844EA0524C5692D8944EA05443E
:102DE000C5692D7B44EA0562046A2468056A6D683A
:102DF00044EA0524056A2D8944EA0544056A2D7BC9
:102E000044EA05630468102C05D14FF02044216684
:102E1000A266E36607E0924C21604FF02044C4F8BC
:102E20008820934C236030BD016841F01001426856
:102E300041EA4221826841EA42318B4A1160C1680D
:102E40000968C268526841EA0221C268128941EAEF
:102E50000241C268127B41EA0261844A1160016941
:102E600009680269526841EA02210269128941EA4D
:102E700002410269127B41EA02617E4A11604169A6
:102E800009684269526841EA02214269128941EAAD
:102E900002414269127B41EA02614FF02042C2F8CE
:102EA000B010704700210160022141600021816063
:102EB000C160016141618161C16101624FF4805172
:102EC0004162490081620021C16201630F21426BAE
:102ED0001160426B5160FF21426B91600F21426B88
:102EE000D160426B1161426B51610021426B916173
:102EF0000F21826B1160826B5160FF21826B9160A8
:102F00000F21826BD160826B1161826B5161002154
:102F1000826B9161704710210160002141608160E6
:102F2000C160016141618161FC21C2691160C269B6
:102F30005160C2699160C269D160026A1160026A1F
:102F40005160026A9160026AD1607047002101609D
:102F500041608160FC21C2681160C2685160C26832
:102F60009160C268D16002691160026951600269B2
:102F700091600269D16042691160426951604269A1
:102F800091604269D160704751B14FF0204252F8D0
:102F9000202042F001024FF0204343F8202009E0B6
:102FA0004FF0204252F82020334B1A404FF020437C
:102FB00043F82020704799B1102808D14FF02042E3
:102FC000126E42F004024FF020431A661DE0244ABC
:102FD000126842F004024FF02043C3F8802014E04E
:102FE000102809D14FF02042126E234BDB1E1A40ED
:102FF0004FF020431A6608E0194A12681F4B02EA94
:1030000003024FF02043C3F88020704740B11649B7
:10301000096841F004014FF02042C2F8A01008E016
:1030200011490968154A01EA02014FF02042C2F82D
:10303000A010704799B1102808D14FF02042126EAD
:1030400042F040024FF020431A662DE0044A126815
:1030500042F040024FF02043C3F8802024E00FE00C
:10306000800000A0880000A0A00000A0A80000A090
:103070008C0000A0AC0000A0FEFF0F00FBFF0F00C3
:10308000102808D14FF02042126E684B1A404FF0C2
:1030900020431A6608E0664A1268644B02EA03029B
:1030A0004FF02043C3F880207047014600201029CC
:1030B00003D14FF02042506F01E05E4A1068704724
:1030C00010B5F2B1102807D14FF020435B6E0B43CF
:1030D0004FF02044636632E0B0F5807F08D1564B54
:1030E0001B6843EA01034FF02044C4F8843026E013
:1030F000524B1B6843EA01034FF02044C4F8A4304C
:103100001DE0102807D14FF020435B6E8B434FF03A
:103110002044636613E0B0F5807F08D1464B1B68FE
:1031200023EA01034FF02044C4F8843007E0434B06
:103130001B6823EA01034FF02044C4F8A43010BDFB
:1031400010B5024600200023102A03D14FF020447E
:10315000636E07E0B2F5807F02D1374C236801E04F
:10316000364C23680B4201D0012000E0002010BD46
:10317000102807D14FF02042526E8A434FF020436F
:103180005A6613E0B0F5807F08D12B4A126822EA14
:1031900001024FF02043C3F8842007E0274A126859
:1031A00022EA01024FF02043C3F8A420704770B513
:1031B00002460020002300240025102A03D14FF0EE
:1031C0002046736E07E0B2F5807F02D11A4E336855
:1031D00001E01A4E336803EA010403EAD10514B191
:1031E0000DB1012000E0002070BD102808D14FF083
:1031F0002042526E22EAD1024FF020435A6613E079
:10320000B0F5807F08D10C4A126822EAD1024FF053
:103210002043C3F8842007E0084A126822EAD1025A
:103220004FF02043C3F8A42070470000BFFF0F00F9
:10323000800000A0940000A0840000A0A40000A0D2
:103240000CB50020019000906B48006840F480307D
:103250006949086000BF6848006800F400300090C9
:103260000198401C0190009818B90198B0F5A06F22
:10327000F1D16148006810F4003F02D001200090B5
:1032800001E0002000900098012842D15B480068CE
:1032900040F01000594908600846006820F003001B
:1032A00008600846006840F0020008605248406824
:1032B000514948600846406848600846406840F404
:1032C000806048600846406820F47C1048600846EA
:1032D000406840F4E81048600846006840F080709C
:1032E000086000BF4448006810F0007FFAD04248F0
:1032F000406820F00300404948600846406840F0BC
:103300000200486000BF3C48406800F00C000828FC
:10331000F9D10CBD10B5FFF793FF10BD10B53648BD
:10332000006840F0010034490860084640683449AC
:1033300008403149486008460068324908402E4933
:1033400008600846006820F480200860084640684D
:1033500020F4FE0048604FF41F008860FFF7DAFF9A
:103360004FF000602849086010BD10B50021002012
:103370000022214B5B6803F00C0121B1042906D027
:10338000082928D107E0214B214C236027E01F4B5F
:103390001F4C236023E0184B5B6803F47010164B3E
:1033A0005B6803F48032022303EB904022B9194B8F
:1033B0004343174C23600DE00F4B5B6813F4003F51
:1033C00004D0144B4343124C236003E00F4B4343A0
:1033D0000F4C236003E00D4B0D4C236000BF00BF7A
:1033E000054B5B68C3F303130B4CE15C084B1B6894
:1033F000CB40074C236010BD00100240002002406B
:103400000000FFF8FFFFF6FE08ED00E000127A0072
:103410002800002000093D002C00002070B5054662
:103420000C4600F0FBF9A62000F092FA284600F0C6
:103430008FFA204600F08CFA00F01AFA70BD70B5D1
:10344000044600F0EBF9A62000F082FA204600F0D6
:103450007FFA00F0E3F9A72000F07AFA00F0A6FA6C
:10346000054600F036FA00F003FA284670BD10B5A4
:103470000B213120FFF7D2FF0C212C20FFF7CEFFCC
:1034800008212D20FFF7CAFF80212E20FFF7C6FF5D
:1034900000211E20FFF7C2FF00211F20FFF7BEFF03
:1034A00005212020FFF7BAFF0020FFF7C8FF0446E0
:1034B000214641A000F09EFD10BD70B500F0AEF9B0
:1034C000A62000F045FA322000F042FA00F0A6F9FA
:1034D000A72000F03DFA00240CE000F067FA3A491A
:1034E0000855052C02D100F0F4F901E000F0D8F9FC
:1034F000601CC4B2062CF0DB00F0BAF93248007848
:103500003149497800EB0125294630A000F072FDD1
:103510002D4880782C49C97800EB0125294630A038
:1035200000F068FD284800792749497900EB01251A
:1035300029462CA000F05EFD70BD2DE9F041054646
:103540000E46174600F06AF9A62000F001FA322074
:1035500000F0FEF900F062F9A72000F0F9F900246C
:103560000CE000F023FA18490855052C02D100F0B0
:10357000B0F901E000F094F9601CC4B2062CF0DB55
:1035800000F076F9104800780F49497800EB0120E7
:1035900000B228800C4880780B49C97800EB0120E4
:1035A00000B23080084800790749497900EB0120D2
:1035B00000B23880BDE8F0814144584C33343520A6
:1035C00049443A30782578003C0000204144584C6A
:1035D0003334352064617461203A2025642C000066
:1035E00025642C0025640D0A0000000070B5054616
:1035F0000C4600F013F93C2000F0AAF9284600F030
:10360000A7F9204600F0A4F900F032F970BD70B5BA
:10361000044600F003F910B961A000F0EBFC3C2077
:1036200000F096F9204600F093F900F0F7F810B991
:103630005BA000F0DFFC3D2000F08AF900F0B6F955
:10364000054600F046F900F013F9284670BD10B5A4
:1036500000F0E4F810B952A000F0CCFC3C2000F0DF
:1036600077F9032000F074F900F0D8F810B94CA0F5
:1036700000F0C0FC3D2000F06BF900240CE000F0ED
:1036800095F949490855052C02D100F022F901E0CD
:1036900000F006F9601CC4B2062CF0DB00F0E8F87C
:1036A00010BD10B50A20FFF7B2FF482800D010BDAA
:1036B0000B20FFF7ACFF342800D0F8E70C20FFF711
:1036C000A6FF332800D0F2E778210020FFF78EFF15
:1036D00060210120FFF78AFF00210220FFF786FF0B
:1036E00000BFE4E72DE9FC5F0024A146A246FFF7F6
:1036F000AEFF2D4840782C49097840EA01242A4839
:10370000C0782949897840EA012A27484079264922
:10371000097940EA0129B4F5004F02DBA4F57F44A2
:10372000FF3CB9F5004F03DBA9F57F49A9F1FF097B
:10373000BAF5004F03DBAAF57F4AAAF1FF0A20463B
:1037400002F07FFB07468846484602F07AFB3A467D
:103750004346CDE9000102F011F805460E4600226D
:10376000124B2846314602F083FB05460E46104AAE
:10377000104B2846314602F0DFF905460E46284632
:10378000314602F031FB834653464A4621460AA0A1
:1037900000F030FC59460EA000F02CFCBDE8FC9F68
:1037A0004572726F720D0A00500000200080664062
:1037B000F1D4C853FB210940484D433538383320F4
:1037C000646174613A2025642C25642C2564000012
:1037D00020203A2020202564200D0A0008B5012170
:1037E0000920FEF79BFDC020ADF8000003208DF8F6
:1037F000020014208DF803004020804908608020DA
:10380000086069467D481038FEF7BEFE08BD64209A
:1038100001E0411EC8B20028FBD1704700B58020EE
:103820007649086040200860FFF7F1FF73480838C8
:10383000006808B9012000E0002010F0800F01D0DE
:10384000002000BD80206D49091D0860FFF7DFFFE3
:103850006A480838006810F0800F01D00020F0E7B7
:1038600080206649091D0860FFF7D1FF0120E8E7C5
:1038700000B540206149091D0860FFF7C8FF80209E
:103880005E49091D0860FFF7C2FF40205B490860E0
:10389000FFF7BDFF802059490860FFF7B8FF00BD62
:1038A00000B540205549091D0860FFF7B0FF802092
:1038B0005249091D0860FFF7AAFF40204F490860E0
:1038C000FFF7A5FF40204D49091D0860FFF79FFF46
:1038D00000BD00B540204949091D0860FFF797FF6A
:1038E000802046490860FFF792FF40204349086066
:1038F000FFF78DFF40204149091D0860FFF787FF52
:1039000000BD00B540203D49091D0860FFF77FFF5D
:1039100080203A490860FFF77AFF40203749086065
:10392000FFF775FF35480838006810F0800F07D0A2
:1039300040203249091D0860FFF769FF002000BDE3
:1039400040202E49091D0860FFF761FF0120F6E7BE
:1039500000B50246082319E040202849091D0860E7
:10396000FFF755FF12F0800F03D080202349086035
:1039700003E080202149091D08605006020EFFF770
:1039800046FF40201D490860FFF741FF1800A3F1E2
:103990000101CBB2E0D140201849091D0860FFF7B2
:1039A000B0FF08B9002000BD0120FCE700B50823E6
:1039B000002280201149086014E05006020E4020C9
:1039C0000E49091D0860FFF722FF40200B490860DF
:1039D000FFF71DFF09480838006810F0800F01D07C
:1039E00042F001021800A3F10101CBB2E5D1402061
:1039F0000249091D0860104600BD0000100C01407E
:103A00002DE9FF4F9BB0054616461C46DDE9287898
:103A1000FE480168006802F089FE1590FC480168C4
:103A2000FA48006802F082FE1490FA480168F748EC
:103A3000006802F07BFE1390F7480168F3480068C5
:103A400002F074FE1290F2480168006802F06EFE07
:103A50001190F0480168EE48006802F067FE10908F
:103A6000ED480168EA48006802F060FE0F90E948FE
:103A70000168006802F05AFE0E90E7480168E548C8
:103A8000006802F053FE0D90E3480168006802F000
:103A90004DFE0C904146404602F048FE39460690E5
:103AA000384602F043FE21460490204602F03EFED6
:103AB0000390049902F0E2FC0590069902F0DEFC06
:103AC000079002F0AFFCCDE9080101F017FFCDE946
:103AD0000A0101F04FFF19902046199902F030FDBC
:103AE00004463846199902F02BFD074640461999BD
:103AF00002F026FD804613990F9802F0E3FE4FF086
:103B000080410B9002F012FE18900D99149802F06B
:103B1000B5FC4FF080410B9002F008FE1790119910
:103B2000159802F0CFFE0A900E9902F0CBFE0B9092
:103B30000C9902F0A3FC16904046179902F0F6FD8E
:103B40000B903846169902F0F1FD0A900B9902F09D
:103B5000B9FE81462046169902F0E8FD0B904046DA
:103B6000189902F0E3FD0A900B9902F0ABFE824631
:103B70003846189902F0DAFD0B902046179902F0AA
:103B8000D5FD0A900B9902F09DFE8346A349484655
:103B900002F0CCFD0B90A24801680B9802F06EFC7D
:103BA0009F4908609D49504602F0C0FD0B909D481A
:103BB00001680B9802F062FC9A49086097495846E0
:103BC00002F0B4FD0B90984801680B9802F056FC87
:103BD000954908604946954802F0A8FD29460A9093
:103BE00002F04CFC0B908E4801680B9802F046FCEA
:103BF000054651468D4802F099FD0A901C9902F045
:103C00003DFC0B90874801680B9802F037FC1C9034
:103C10005946864802F08AFD31460A9002F02EFC91
:103C20000B90814801680B9802F028FC064631464B
:103C30007948006802F07AFD099076481C9900687E
:103C400002F074FD07907248006880F00040294639
:103C5000059002F06BFD0690079902F033FE089084
:103C6000099902F02FFE6D490A9002F05FFD0B905A
:103C7000664801680B9802F001FC644908606648D8
:103C80001C99006802F052FD3146099061480068B5
:103C900002F04CFD07905D480168284602F046FDA1
:103CA0000690079902F0EAFB0890099902F00AFED3
:103CB0005A490A9002F03AFD0B90554801680B985A
:103CC00002F0DCFB5249086053480168284602F0C4
:103CD0002DFD314609904E48006802F027FD0790FF
:103CE0004A481C99006802F021FD0690079902F0ED
:103CF000E9FD0890099902F0C1FB48490A9002F0D9
:103D000015FD0B90434801680B9802F0B7FB414941
:103D1000086008460168284602F008FD09903C4802
:103D20001C99006802F002FD314607903748006890
:103D300002F0FCFC0690079902F0A0FB089009999C
:103D400002F0C0FD35490A9002F0F0FC0B903248B9
:103D500001680B9802F092FB2F4908600846016841
:103D6000006802F0E3FC06902A480168006802F04F
:103D7000DDFC049026480168006802F0D7FC029040
:103D800022480168006802F0D1FC0190029902F01B
:103D900075FB0390049902F071FB0590069902F0FF
:103DA0006DFB079002F03EFBCDE9080101F0A6FD96
:103DB000CDE90A0101F0DEFD199014481999006857
:103DC00002F0BEFB1149086011481999006802F021
:103DD000B7FB0F4908600F481999006802F0B0FB63
:103DE0000C4908600C481999006802F0A9FB0A49BF
:103DF0000860084601680648006802F097FC0390D6
:103E0000044801680148006812E0000058000020E2
:103E10005C00002060000020640000206F12833AE4
:103E2000680000206C00002070000020CDCC4C3FCA
:103E300002F07CFC0290039902F044FD4FF08041B7
:103E4000049002F073FC059002F0ECFACDE9060153
:103E500001F044FA4FF000521B4BCDE9080102F08B
:103E600007F8CDE90A0101F085FD184948621848B4
:103E700001681848006802F059FC03901648016870
:103E80001648006802F052FC0290039902F0F6FA1C
:103E90004FF08041049002F049FC059002F0C2FA14
:103EA000CDE9060101F01AFA4FF00052064BCDE9B8
:103EB000080101F0DDFFCDE90A0101F05BFD0349D6
:103EC00088621FB0BDE8F08FDCA54C4030010020B7
:103ED00064000020600000205C00002058000020EA
:103EE00070B505460C46FFF799FCD220FFF730FD70
:103EF0002846FFF72DFD2046FFF72AFDFFF7B8FC07
:103F0000012070BD70B50446FFF788FC10B931A0E0
:103F100000F070F8D220FFF71BFD2046FFF718FDD8
:103F2000FFF77CFC10B92BA000F064F8D320FFF75A
:103F30000FFDFFF73BFD0546FFF7CBFCFFF798FCB5
:103F4000284670BD10B50F212020FFF7C9FF0021C2
:103F50002120FFF7C5FF08212220FFF7C1FF002124
:103F60002320FFF7BDFF00212420FFF7B9FF0F201A
:103F7000FFF7C8FF194908700846017818A000F03B
:103F800039F810BD2DE9F04105460E4617462820A8
:103F9000FFF7B8FF04462920FFF7B4FF44EA0020EA
:103FA00004B22C802A20FFF7ADFF04462B20FFF738
:103FB000A9FF44EA002004B234802C20FFF7A2FFBE
:103FC00004462D20FFF79EFF44EA002004B23C8007
:103FD000BDE8F0814572726F720D0A008800002002
:103FE00057484F5F414D5F493A202578200D0A0020
:103FF000704700000FB4044910B503AA029800F0FE
:104000009BFB10BC5DF814FB0800002070B5044653
:1040100085690068C10601D5302600E02026C0076A
:1040200008D070BDD4E9012130469047206A00F1E4
:10403000010020626D1EF5D570BD70B5044685691E
:104040000078C00708D170BDD4E901212020904735
:10405000206A00F1010020626D1EF5D570BD0000E0
:104060002DE9F0410646002410687529314616A551
:1040700011D0AFF30080002803DAC0F1000013A5CF
:1040800007E031688A0701D511A502E0490704D588
:1040900010A5012401E0AFF3008000210A2306F1FE
:1040A000240707E0B0FBF3F203FB12003030785432
:1040B0001046491C0028F5D123462A463046BDE863
:1040C000F04100F0CDB80000000000002D0000001D
:1040D0002B0000002000000070B504460D4621466C
:1040E0001068AFF300802188090502D5104A7A4490
:1040F00002E00F4A7A440E32002104F1240307E063
:1041000000F00F064FEA1010965D5E5401F10101B8
:104110000028F5D103462078000704D5702D02D081
:1041200009B1113202232046BDE8704000F098B872
:10413000F44500002DE9F0474FF0000A8946044697
:10414000C0F820A02046E1688847002876D02528BE
:1041500006D0D4E901219047206A401C2062F1E793
:10416000E168204600258847C4F81CA006460027C1
:10417000C4F818A02A2E09D0304601F0A7F838B3A9
:1041800004EB8708303EC8F8186019E059F8041BA2
:10419000204604EB87029161E1688847012F0646BB
:1041A00018D1E069002820DA25F020051DE0D8F8B4
:1041B000180000EB800006EB40003038C8F818000B
:1041C0002046E1688847064601F080F80028EED1D5
:1041D000012F0AD02E2E08D12046E16888477F1C87
:1041E0000646022F45F02005C4DBA069002803DA4B
:1041F000404245F00105A061E80701D025F0100517
:10420000B6B1A6F14100192802D8203645F4006560
:104210004A463146204625604D46FBF7C3FF58B15C
:10422000012806D0ED1D25F0070000F1080989E7F7
:1042300004E005F1040985E730468AE7206ABDE815
:10424000F087704770477047704710B500F08AFAE2
:10425000006810BD10B5044600F084FA046010BD7B
:104260002DE9F0470D4699469246044600F1240890
:104270000168880604D5E06921F01001216000E0A2
:104280000120A84202DDA0EB050700E00027A1699C
:1042900007EB050202EB0900A1EB0000A06120780A
:1042A000C00602D42046FFF7B1FE002608E0D4E99C
:1042B00001211AF806009047206A401C761C2062F3
:1042C0004E45F4DB2078C0060AD52046FFF79EFE57
:1042D00006E0D4E9012130209047206A401C20628A
:1042E000381EA7F10107F4DC07E0D4E9012118F832
:1042F00005009047206A401C2062281EA5F1010598
:10430000F3DC2046FFF799FE2078000602D5022054
:10431000BDE8F0870120FBE770472DE9FF4F0C4611
:104320001E464FF0FF378BB0D2E90001DDF8608008
:104330000A908A46C1F30A5505B93D460021084650
:104340004FF00000BAF1000F00F4400005DA00EB76
:1043500080004FF4400101EA50004FEA9059B9F152
:10436000010F00DDB9460A9850EA4A000ED044F623
:104370001050A5F2FF3545432F14B8F1000F1ED0A1
:104380007542291E1EDDC9F100021CE0B8F1010FC3
:104390004FF0000001D0302103E0F24305E021544A
:1043A000401CB042FBDB30460022002121540B9917
:1043B000C1F80880C1E900200FB0BDE8F08FBD1B37
:1043C0006D1CDEE74A4600DA694206A800F06CFA86
:1043D00006AB07CB03AB07C350460A9900F04AFB74
:1043E0008DE80700A0F500501F3800900398002DBD
:1043F00009DD42F21F014A46084403A903906846BA
:1044000000F0A9FD08E0A0F500504A461F3803A9B6
:104410000390684600F0B3FD8DE807000004000C2F
:1044200003D04FF0FF30410800E01046B8F1000F14
:1044300003D00022009215461FE0751E06D400F03E
:1044400095F902F1300262556D1EF8D5B34601228E
:10445000084302D000227F1C04E02078302801D1DC
:1044600000227F1E002A099787D01DE0112D07DA50
:1044700000F07CF9303262556D1C50EA0102F5D132
:1044800008430FD10021681E05E0235C625C635481
:10449000491C2254401E8142F7DBAB46A81B401E3C
:1044A000099001E0009848B1002004F80B000B9837
:1044B000099AC0F80880C0E9002B7DE711264FF06B
:1044C00000085AE72DE9F04F88460446D21D22F035
:1044D000070191B0D1E90001CDE90A0100F085FEA4
:1044E00002460B98C00F01D02D2007E020688107FD
:1044F00001D52B2002E0202101EAC000032A099007
:1045000001D0072A05DB03464146204600F08CF91E
:104510000FE12078800601D5E06900E00620B8F1BF
:10452000650F814606D0B8F1660F18D0B8F1670F55
:1045300072D132E00020B9F1110F009001DB11239C
:1045400001E009F101030AAA01A90CA8FFF7E5FEA1
:10455000DDE90C70002609F10105834648E00120E1
:104560004B4600904FF000470AAA01A90CA8FFF79C
:10457000D4FEDDE90DB00C995D46002618B909F1AD
:10458000010001EB0005B9EB050003D4C0F1FF36D3
:1045900009F10105A5EB09002BE0B9F1010F01DAE2
:1045A0004FF001090020B9F1110F0090484601DDDC
:1045B000112300E003460AAA01A90CA8FFF7ADFEEB
:1045C000DDE90C704D4600268346207800070AD4AA
:1045D000AB4500DA5D4601A8012D04DD411911F853
:1045E000011C302907D04F4502DA17F1040F04DA15
:1045F0000120824610E06D1EEEE7002F02DCED1B6D
:104600003E4403E0781CA84200DD0546A7EB060007
:1046100000F1010A4FF000472078000703D4AA45B3
:1046200001DB4FF0FF3A0021B7F1004F0DF14308D5
:104630008DF8431023D002202B23002F01DA7F4274
:104640002D234FF00A0C011EA0F1010000DC4FB138
:1046500097FBFCF10CFB11720F4602F1300208F8D7
:10466000012DF0E7A8F1010003702188090501D5AB
:10467000452100E06521A0F1010800F8011C09981E
:104680000FA9A1EB080707F1070700B1012000EB14
:10469000050101EBEA70A1693844A1EB0000A0F12B
:1046A0000100A0612078C00602D42046FFF7AEFCCE
:1046B000099830B1D4E901219047206A00F1010046
:1046C00020622078C00620D52046FFF79FFC1CE022
:1046D000002E04DBB34502DD01A8805D00E0302040
:1046E000D4E901219047206A761C401CBAF1010AE6
:1046F00020620AD100F032F8C0680168405CD4E959
:1047000001219047206A401C2062281EA5F1010566
:10471000DEDC07E0D4E9012118F8010B9047206A9C
:10472000401C2062381EA7F10107F3DC2046FFF78A
:1047300084FC022011B040E6074B70B50D467B4467
:1047400000F05FF80446284600F020F910B14FF061
:10475000FF3070BD204670BDB7BDFFFF00487047F9
:1047600080010020004870476001002030B5B0F1A2
:104770000A024FEA900E71F100034EEA817EB0EB1F
:104780000E0061EB91014FEA101E4EEA017E10EB24
:104790000E0041EB11114FEA102E4EEA016E10EBA4
:1047A0000E0041EB11214FEA104E4EEA014E10EB84
:1047B0000E0041EB1141401841F100014FEAD000D9
:1047C00040EA41704FEAD10110EB80054FEA8104C5
:1047D00044EA907444EB01046D1944EB0404521B49
:1047E000A3414FF0000348BF0A3200D530BD401C42
:1047F00041F1000130BD000001694A1C02610878E6
:10480000704700B58FB0CDE9013100210591054910
:104810007944CDE9031011466846FFF78BFC0FB0D1
:1048200000BD0000E5FFFFFF2DE9F0411F460446F3
:1048300003260168072A01F4006004DB08B116A50D
:1048400005E016A503E008B115A500E015A521F0C7
:1048500010002060A069C01EA0610FB1401EA061C1
:104860002046FFF7D3FB4FB1D4E9012138469047EA
:10487000206A401C2062C01C206206E0206AFAE721
:10488000D4E9012115F8010B9047761EF8D2204695
:10489000FFF7D3FBBDE8F0814E414E006E616E0024
:1048A000494E4600696E66002DE9F047814616467E
:1048B0008AB035487844D0E9002380680092CDE979
:1048C0000130314878440C38D0E902230069039262
:1048D0004FF03702CDE9043041F69B30014491FBA3
:1048E000F2F0A0F1800502FB10141B3C02D56442DB
:1048F000012000E00020DFF890A080460027FA4465
:10490000AAF1C60A0DE0E00709D03246684607EB77
:1049100047010AEB810100F032FB8DE807006410CB
:104920007F1C002CEFD1184F7F44B43F17E0E807FD
:1049300013D007EB04100DF1180A90E80E00AAE856
:104940000E00C068F04201D198190890324606A9BD
:1049500003A800F014FB03AB07C36D10641C002D0B
:10496000E5D132466946B8F1000F03A802D000F045
:10497000F2FA01E000F003FBC9E90001C9F80820E0
:104980000AB0BDE8F0870000C43F0000007B00F0E3
:104990008000704700487047600100207546FFF7AF
:1049A000F9FFAE4605006946534620F007008546EC
:1049B00018B020B5FDF736FBBDE820404FF00006EB
:1049C0004FF000074FF000084FF0000B21F00701F7
:1049D000AC46ACE8C009ACE8C009ACE8C009ACE83A
:1049E000C0098D4670470446AFF300802046FBF7B0
:1049F000F9FB00004FF0013C50F8042B51F8043B48
:104A00009A4221D1A2EB0C03934313EACC1317D1A2
:104A100050F8042B51F8043B9A4215D1A2EB0C0339
:104A2000934313EACC130BD150F8042B51F8043BF9
:104A30009A4209D1A2EB0C03934313EACC13DBD0C7
:104A40004FF00000704700BFD01A01BAB1FA81F1EF
:104A500001F0180122FA01F0CB40C1F12001DBB2D4
:104A6000C0B2C01A2CFA01F3D11A914311EAC31152
:104A7000E6D170475FEA400C08BF91F0000F4FEAA3
:104A80008C234FEAC12243EA51514FEA1C5018BF10
:104A900000F5F0404FEA300018BF41F000415FEAF6
:104AA0006C5C00F02980BCF1FF3F08BF40F0804003
:104AB0007047130C06BF12044FF0100C4FF0000C9F
:104AC000130E04BF12020CF1080C130F04BF1201E5
:104AD0000CF1040C930F04BF92000CF1020CD30FE5
:104AE00004BF52000CF1010C11464FF00002A0F17E
:104AF0001F00A0EB0C00704711F0004F08BF70477B
:104B000031F000413FF4D5AF0B0C06BF09044FF064
:104B1000100C4FF0000C0B0E04BF09020CF1080C36
:104B20000B0F04BF09010CF1040C8B0F04BF8900AB
:104B30000CF1020CCB0F04BF49000CF1010CCCF1BD
:104B40002003A0EB0C0022FA03F302FA0CF241EA74
:104B5000030100F10100704720F07F4C80EA030060
:104B600023F07F47ACEB070303F57C5300F00040D4
:104B700003F1FF032DE980494FEA154B09B44FEAD1
:104B8000144325EA0B4E24EA03480FF2042606EBF1
:104B9000132749083E785FEA320203FB0667C7F530
:104BA000000707FB06F64FEA54374FEAD64606F1F0
:104BB000020607FB066CCCF1005C4FEA1C472CEAAE
:104BC000074C07FB06F40CFB06F504EB15464FEA11
:104BD000961634BF00204FF000404FEAD13706FB55
:104BE00007FC4FEA1C4C0CFB0BF7D21B03FB0CF72A
:104BF00061EB07010CFB0EF7B0EB074072EB1742BD
:104C00000CFB08F734BFA2EB0742B2EB074261EBA3
:104C100017414FEA0C444FEA910706FB07FC4FEAA5
:104C20001C4C0CFB0BF7B0EBC74072EB573203FB8D
:104C30000CF734BFA2EBC742B2EBC74261EB57316E
:104C40000CFB0EF7B0EBC70072EB57720CFB08F7CA
:104C500034BFA2EBC702B2EBC70261EB5771039FEF
:104C60004FEA816141EA921104EBCC044FEAD1375B
:104C70004FEA826206FB07FC42EA90124FEA80602C
:104C80004FEA1C4C0CFB0BF7D21B03FB0CF761EB40
:104C900007010CFB0EF7B0EB074072EB17420CFB61
:104CA00008F734BFA2EB0742B2EB074261EB1741B2
:104CB0004FEA8C554FEA910704EB9C2406FB07FC56
:104CC0004FEA1C4C0CFB0BF7B0EBC74072EB5732B2
:104CD00003FB0CF734BFA2EBC742B2EBC74261EB58
:104CE00057310CFB0EF7B0EBC70072EB57720CFBA1
:104CF00008F734BFA2EBC702B2EBC70261EB5771F2
:104D000015EB4C254FEA816141EA92114FEA82622C
:104D10004FEAD13742EA901206FB07FC44F1000447
:104D20004FEA80604FEA1C4C0CFB0BF7D21B03FBD5
:104D30000CF761EB07010CFB0EF7B0EB074072EBD1
:104D400017420CFB08F734BFA2EB0742B2EB074255
:104D500061EB174115EB1C154FEA813141EA924195
:104D60004FEA823242EA90424FEA80304FEA0C76B4
:104D700044F1000448EA03434EEA0B484FF0000EAA
:104D8000B2EB080C71EB030724BF624639464EEBC9
:104D90000E0E4FF0000B0018524149414BEB0B0B2C
:104DA000B2EB080C71EB03077BF1000B24BF6246EA
:104DB00039464EEB0E0E4FF0000B001852414941A0
:104DC0004BEB0B0BB2EB080C71EB03077BF1000B09
:104DD00024BF624639464EEB0E0E51EA020718BF59
:104DE00046F0010616EB0E7655F1000254F1000173
:104DF00003D5BDE88901BDE80088BDE88901BDE8AB
:104E00000048B619524141EB0101A3F1010370477B
:104E100080807F7E7D7C7B7A7978777676757473F7
:104E2000727171706F6E6E6D6C6C6B6A6A696868B6
:104E3000676666656464636362616160605F5F5E4C
:104E40005E5D5D5C5C5B5B5A5A59595858575756C2
:104E50005655555554545353525252515150505027
:104E60004F4F4F4E4E4D4D4D4C4C4C4B4B4B4A4A79
:104E70004A494949484848474747474646464545BD
:104E800045444444444343434342424242414141F6
:104E9000002B26D4770021D01CB54FEA370703B486
:104EA0004FF010004FF010014FF000000FBCBDE8B4
:104EB00010400BF1010BBBF1010F08BF5FEA1707B0
:104EC00022BF12F1010211F101014FF0004143F143
:104ED000000300F0004043EA00007047F9D3570890
:104EE000DAE746EA064613F1400F4FEA16461FDDA1
:104EF00013F1200FDFBF16430A46002120335B4227
:104F0000C8D0C3F1200746EA064602FA07F74FEA7F
:104F1000164646EA0706C3F1200722FA03F201FA11
:104F200007F721FA03F14FF0000342EA0702B1E765
:104F300046EA020646EA06464FEA164646EA0106F1
:104F4000BCBF46EA0646360C4FF000034FF00002A5
:104F50004FF000019EE72DE9C048934630B491E838
:104F6000380007C831EA400C48BF34EA430C03D587
:104F7000FFF7F2FDFFF78CFFF0BCBDE800882DE9DC
:104F8000C048934630B491E8380007C810F0804F0D
:104F900008BF13F0804F03D100F005F8FFF778FF4A
:104FA000F0BCBDE8008820F07F4780EA030023F0D2
:104FB0007F4C07EB0C03A3F57C5300F00040A3F1FA
:104FC000FE0392F0000F00F0B38095F0000F00F0A8
:104FD00077802DE901494FEA11404FEA144621EA52
:104FE000004800FB06FC24EA064708FB06F607FB20
:104FF00008F800FB07F718EB06484CEB164C4FEA95
:10500000124B18EB07484FEA15464CEB174022EAC3
:105010000B4E0BFB06FC25EA06470EFB06F607FBCC
:105020000EFE0BFB07F71EEB064E4CEB164C4FF03B
:1050300000061EEB074E4CEB174B18EB0B0840F12C
:10504000000018EB0E0B58EB000840F100008F1A1F
:105050004FF000013CBFC943661B14BFB5EB040C05
:1050600000213CBFC943F61B4FEA17444EEA8E0E9F
:1050700027EA04454FEA1C4704FB07622CEA074C69
:1050800005FB07F70CFB05F604FB0CFC16EB0746CB
:1050900042EB174216EB0C4642EB1C421BEB06069A
:1050A00058EB0202414146EA9E0601D5BDE801895E
:1050B000B619524141EB0101A3F10103BDE8018999
:1050C0004FEA14454FEA114724EA054621EA074C06
:1050D00005FB07F406FB07F70CFB06F105FB0CFCD0
:1050E00011EB074144EB17444FEA124711EB0C4117
:1050F00044EB1C4422EA074C05FB07F206FB07F7CA
:105100000CFB06F605FB0CFC16EB074642EB1742C0
:1051100016EB0C4642EB1C456A1854F1000148BFDF
:105120007047B619524141EB0101A3F101037047E9
:1051300095F0000F37D04FEA11424FEA144721EAA9
:10514000024624EA074C02FB07F106FB07F70CFBBB
:1051500006F402FB0CFC14EB074441EB17414FEA49
:10516000154714EB0C4441EB1C4125EA074C02FBAC
:1051700007F506FB07F70CFB06F602FB0CFC16EB2B
:10518000074645EB174516EB0C4645EB1C4212193A
:1051900051F1000148BF7047B619524141EB01017E
:1051A000A3F1010370474FEA14454FEA114724EA7F
:1051B000054621EA074C05FB07F106FB07F70CFB48
:1051C00006F24FF0000605FB0CFC12EB074241EB28
:1051D000174112EB0C4251EB1C4148BF704792182B
:1051E00041EB0101A3F101037047490050EAC120DE
:1051F00018BF04204A0D18BF40F0010040F2FF72B2
:10520000B2EB515F08BF40F00200012808BF052043
:1052100070472DE9F0414F1E00EBC7010446D1E96C
:10522000000115461E4637F006020DD02A463346C9
:1052300000F01EFE7F1E04EBC703D3E9002300F03D
:10524000CBFB37F00602F1D1022F25D0042F13D06B
:10525000062F18BFBDE8F0812A46334600F008FE4D
:10526000D4E90A2300F0B8FB2A46334600F000FEDA
:10527000D4E9082300F0B0FB2A46334600F0F8FDDD
:10528000D4E9062300F0A8FB2A46334600F0F0FDDF
:10529000D4E9042300F0A0FB2A46334600F0E8FDE1
:1052A000D4E9022300F098FB2A46334600F0E0FDE3
:1052B000D4E90023BDE8F04100F08EBB024A002093
:1052C000110701F0A8BB000001FDFFFF30380A28DC
:1052D00001D2012070470020704700002DE9F04DF9
:1052E000904F21F0004A86B005460C46BA4530DBA7
:1052F000AAEB070028430CD08B48824501DC1CD167
:10530000DDB106B02846BDE8F04D4FF0010201F0D6
:1053100082BB864A864B284600F0AAFD07460E4609
:10532000844A854B2846214600F0A2FD06B03A4645
:105330003346BDE8F04D00F04FBB0120FEF78AFF79
:1053400006B00022BDE8F04D13461046114600F0AD
:10535000F3BB7A48824542DABAF1795F0BDA284624
:10536000FFF743FF042808BFFFF7A8FF284606B051
:105370002146BDE8F08D2A460B46104600F078FD28
:10538000834602466E480E460B4606217844FFF7D8
:1053900040FF5A46334600F06BFD804669488A4616
:1053A0005A46334604217844FFF733FF5A463346C2
:1053B00000F05EFD00223B4600F00EFB02460B466D
:1053C0004046514600F0B8FB2A46234600F050FD07
:1053D00006B02A462346BDE8F04D00F0FDBA284647
:1053E00024F0004100223D463B4600F03FFE4FF0D6
:1053F000FF3201F010FB0646024653480F460B46AB
:1054000006217844FFF705FF32463B4600F030FDA9
:10541000CDE900014D4832463B4604217844FFF770
:10542000F8FE32463B4600F023FD00222B4600F0FA
:10543000D3FA834602913046394600F05FFA80463F
:1054400043480D46504517DCDDE900015A46029BF2
:1054500000F072FB42462B4600F00AFD42462B4606
:1054600000F0BAFA012201F0D6FA304A304B00F0CF
:10547000EFFE304A304B4CE04FF0000A52460B46EC
:10548000404600F0A9FACDE9031052462B461046DB
:10549000194600F0EDFC32463B4600F0E7FDDDE941
:1054A000033200F049FB06460F46DDE900015A468B
:1054B000029B00F041FB83460091012230463946B1
:1054C00001F0A9FA194A1A4B00F0D0FD06460F4622
:1054D00001224046294601F09EFA5A46009B00F000
:1054E000C7FC32463B4600F0B3FE07460E4601229B
:1054F0005046294601F08FFA0E4DDFF858802A46B3
:10550000434600F0B3FD3A46334600F0AFFD2A466D
:10551000434600F0ABFD002CD8BF81F0004106B03F
:10552000BDE8F08D0000F03F0000F07F075C143311
:1055300026A6913C182D4454FB21F93F0000E03F82
:1055400080330000963300000A330000203300004F
:105550003333EF3FFB21E93F2DE9F84F04460D4679
:1055600021F0004000917449814213DC7349884264
:1055700001DC08D13CB120462946BDE8F84F4FF088
:10558000010201F048BA6E48002DCCBF6D496E494A
:10559000BDE8F88F6D49814211DD6D498142D8BF68
:1055A0004FF0FF366DDD20462946FFF71EFE04282A
:1055B00008BFFFF783FE20462946BDE8F88F6549FE
:1055C000654F25F00045814233DD6449814219DD94
:1055D000002632464FF080432046294600F0FCF971
:1055E00080468A4601222046294601F014FA00220C
:1055F0003B4600F02DFE4246534600F09DFA04461D
:105600000D463EE001260022BA463B46204629468A
:1056100000F0E2F980460F46002253462046294614
:1056200000F016FE42463B4600F086FA04460D4660
:1056300027E04B4981421BDDDFF82881022600224A
:1056400043462046294600F013FC00223B4600F06A
:10565000C3F907468A46002243462046294600F001
:10566000F7FD3A46534600F067FA04460D4608E057
:10567000032622462B4600203B4900F05DFA0446F3
:105680000D4622462B461046194600F0F1FB8B468C
:10569000824602460B4600F0EBFB074602463348C3
:1056A00088460B4606217844FFF7B3FD52465B4619
:1056B00000F0DEFB82462E488B463A4643460521E3
:1056C0007844FFF7A6FD3A46434600F0D1FB024678
:1056D0000B46002E504659460CDA00F07DF9224662
:1056E0002B4600F0C5FB01B022462B46BDE8F04F2B
:1056F00000F0BCBC00F070F922462B4600F0B8FB6D
:105700001C4A7A4402EBC603D3E9002300F0A0FD53
:1057100022462B4600F09CFD174A7A4402EBC60352
:10572000D3E9002300F0A2FC009A002AB8BF81F060
:105730000041BDE8F88F0000000010440000F07F39
:10574000182D4454FB21F93FFB21F9BF0000DC3F39
:105750000000203E0000F33F0000F03F0000E63F65
:10576000008003400000F83F0000F0BF1E31000041
:10577000DC3000007A300000423000002DE9F04DAE
:105780009446CCF1000423F000464CEA0404524F46
:1057900046EAD4749A46884621F00042BC4206D8B4
:1057A000454240EA050442EAD474BC4204D9BDE84B
:1057B000F04D624600F010B9AAF14055A5F17F65A1
:1057C00055EA0C040BD0022404EAAA74434DDFF816
:1057D00010E144EAD87452EA000B04D00CE0BDE8B2
:1057E000F04DFFF7B9BE002C14BF012CBDE8F08DC1
:1057F000022C30D0032C32D056EA0C0B0AD0BE4219
:1058000020D1BA4209D126F0804622F080423346A8
:10581000114617E000291ADB25E0DFF8C8B0FB4489
:10582000002C04BFDBE90001BDE8F08D012C02BFB4
:10583000DBE9000181F00041BDE8F08D022C0AD0C7
:10584000032C0CD0BA4212D1B8F1000F0BDA234866
:105850002549BDE8F08D28462449BDE8F08D28464D
:105860007146BDE8F08D1D482149BDE8F08D921BC1
:1058700012153C2AC4BF19481D490EDCBAF1000FAD
:10588000BEBF12F13C0F0020014606DB624600F06D
:1058900053F921F00041FFF75FFE002C08BFBDE87F
:1058A000F08D012C04BF81F00041BDE8F08D114A5C
:1058B000114B022C07D000F0CBFC2A46BDE8F04D7E
:1058C0000A4B00F0C5BC00F0C3FC2A46BDE8F04D11
:1058D000064B00F0CBBB00000000F07F182D4454B5
:1058E000FB2109C0D62F0000FB21F9BFFB21094095
:1058F000FB21F93F075C143326A6A13C2DE9F041BA
:1059000006460F4600F0BEFB04000D4618BF0120FE
:10591000284320F00040C0F17F6000F1E040C00F5C
:105920000ED0301C18BF0120384320F00040C0F1D9
:105930007F6000F1E040C00F04BF0120FEF78AFC49
:1059400020462946BDE8F08110B500290AD0087824
:10595000002807D005487844FFF74CF8002801D00C
:10596000002010BD0248784410BD00005E2F0000EA
:10597000562F000021F00042A2F16052B2F5801FC4
:1059800001F0004328BFD2F17F6C0BD95FEA001C05
:1059900043EAC20242EB507018BF704728BF20F0A4
:1059A00001007047B2F5801FBCBF184670474FEA30
:1059B000410C1CF5001F02D2084600F07EBF70B5F6
:1059C00000F000FB00000089FFF7F6BF4FF0004039
:1059D000A0F580007047000010B591EA030F48BFA2
:1059E00083F0004300F13C84841A71EB030C05D270
:1059F000121943EB0C03001B61EB0C01DFF824E1EF
:105A00004FEA1154A4EB135C1EEA430F18BF9EEA41
:105A1000445F73D023EA0E03DCF1200E21EA045127
:105A200043F4801332D322FA0CFE10EB0E0023FA5B
:105A30000CFE41EB0E01CCF1200E03FA0EFE10EB32
:105A40000E0051F10001B1F5801FCCF1200E32D2D1
:105A500001EB045112FA0EF2BDE8104058BF704736
:105A6000401C38BF5FEA420218BF7047002814BFCD
:105A700020F0010041F100014FEA410313F5001F3E
:105A800038BF7047A1F1C04100F0EABA012A43EBE8
:105A90000302ACF1200CDCF11F0E32BF4FF0000E00
:105AA00023FA0CF310EB030041EB0451B4EB115F4C
:105AB000D0D0A1EB045101F5801149085FEA300014
:105AC00001EB04510ED350F1000038BF12FA0EFE64
:105AD00008D1BDE81040C9E7401C38BF5FEA420268
